:020000040000FA
:06000000020A3F0201B0FC
:03002B000209EDDA
:0300330002068240
:030043000208AE02
:03004B0002074C5D
:03005300020103A4
:03005B0002075B3E
:030063000207672A
:03006B0002066822
:1000830002014C0101FF01010503010F10FEFF03F3
:100093000003000300030003000300030003000345
:1000A3000005000A00140028004F009E00000062B3
:1000B3001362136213621324121E126213011F00D0
:1000C300000000631F000000000C0000000C000192
:1000D300DA05FF0100010200F61200000069136453
:1000E300000202000000020502071E02051E020AAA
:1000F30003B80B02803E0103320002F1FF02020645
:10010300C0E074F21203C2E5A7F8E5A1F958541050
:100113006008121A6A53A1EF802AE8A2E0C0D0E96E
:10012300A2E092F012098E158182F0501790619827
:10013300E0F890167EE0C398A2D265D0335002E86F
:10014300F053A1FE7F01020479C0E074F21203C2EE
:100153009061A4E0F8759B00E59158540860087518
:1001630091F7121AAC802AE59158541060087591E2
:10017300EF121AB2801BE8A2E0C0D0E591A2E09290
:10018300F012098E158182F05007E0C2E0F0121BD5
:10019300D29061A3E0F8E5E9585404600E121BA85D
:1001A30075E9FB906193E0A2E640F28097C0E074AA
:1001B300F21203C29061A5E0F8E5BF58540460064B
:1001C30053BFFB121BEA020147C3E498F8E499F911
:1001D30012020D8026C3E49AFAE49BFBE920E7E9C7
:1001E30012020DE498F8E499F922C3E498F8E4992B
:1001F300F912020DE498F8E499F9C3E49AFAE49B3E
:10020300FB22EB20E7CFE920E7E0B90010BB0008B1
:10021300E88AF084F8AAF022E4FBC8FA22EB702201
:100223007B10C833C8C933C9335007C39AC3DBF241
:1002330080069A50012ADBEAC833F4C8C933F4C9EB
:10024300FA2275F008E4C833C8C933C933C99AC957
:100253009B5004C92AC93BD5F0ECFBC833F4C8E46E
:10026300C9FA22080808EAC0E0EBC0E086F0E7A478
:10027300FA180986F0E7A42AFA180986F0E7A42AEF
:10028300FA180986F0E7A42AFA1986F0E7A4FBE531
:10029300F02AFA190886F0E7A42BFBE5F03AFA19DD
:1002A3000886F0E7A42BFBE5F03AFA18180986F064
:1002B300E7A4C5F02BFBE43AFA1908E7C5F0C6A496
:1002C30026F6E5F03BFBE43AFA1886F0E7A4F6E5F8
:1002D300F00826F6E43B08F6E43A08F6D0E0FBD053
:1002E300E0FA22E4CFC0E0E4CEC0E0E4CDC0E0E435
:1002F300CCC0E075F020C3E633F608E633F608E633
:1003030033F608E633F6181818EC33FCED33FDEE3C
:1003130033FEEF33FFC3EC9709ED9709EE9709EF2F
:1003230097191919400FFFEC97FC09ED97FD09EE9A
:1003330097FE191906D5F0BEECF709EDF709EEF7AC
:1003430009EFF7191919D0E0FCD0E0FDD0E0FED099
:10035300E0FF222510C582C0E0E51134FFC583C04C
:10036300E0E510C3958224F810AF088583118582D8
:10037300108008858311858210D2AFCEF0A3E520CB
:10038300F0A37808E608F0A3DEFAEFF0A3E58124F2
:10039300FAF8E608F0A3E608F0A3E608F0A30808D5
:1003A300E608F0A3E608F0A315811581D0E0FED09E
:1003B300E0F8158115811581E8C0E0EEC0E022C0A8
:1003C300D02510C582C0E0E51134FFC583C0E0E548
:1003D30010C3958224F310AF0885831185821080A2
:1003E30008858311858210D2AFC8F0A3E9F0A3EA90
:1003F300F0A3EBF0A37908E709F0A3D8FAECF0A394
:10040300EDF0A3EEF0A3EFF0A3D0E0F0A3D0E0F083
:10041300A3D0E0F0A3E520F0A3E5F0F0A322120AB5
:10042300A1B90003020463E4900400782E791880D4
:1004330002F0A3D8FCD9FA901B2DAA82AB839000BB
:1004430086787E79018015E493A3AC82AD838A829A
:100453008B83F0A3AA82AB838C828D83D8E9D9E7FF
:1004630075827E7583C5740312051D75827275834B
:100473001E740012051D851183851082E0C0E0A360
:10048300E0F9A3E0FAA3E0FBA37808E0F608A3DF12
:10049300FAE0FCA3E0FDA3E0FEA3E0FFA3E0C0E0DD
:1004A300A3E0C0E0A3E0F5D0A3E0F520A3E0A3F52B
:1004B300F010AF088583118582108008858311852C
:1004C3008210D2AFD082D083D0E0F8D0E032D08394
:1004D300D082ECC0E0EDC0E0E493A3FCE493A3FD81
:1004E300ED4C600D1205F3EC24FFFCED34FFFD80B1
:1004F300EFE493A3FCE493A3FDED4C600D1206F728
:10050300EC24FFFCED34FFFD80EFD0E0FDD0E0FCF8
:10051300E493A3C0E0E493C0E022C0F0F5F0E59FCC
:100523005407C0E0E59F54F845F0D0F0F59FE4731D
:10053300859FF053F0F8D0E045F0F59F22D083D0AB
:1005430082E59F5407C0E0E493C0E0740193C0E0E8
:100553007402935407C0F0F5F0E59F54F845F0D0CA
:10056300F0F59F22D083D082E9C0E0E493A3C38651
:10057300F0C5F095F0F908E493A386F0C5F095F083
:10058300700BE493A3C3994005E9048002A3E475C7
:10059300F002A42582F582E5F03583F583D0E0F9F6
:1005A300E493A3C0E0E493C0E02285118385108225
:1005B300E0A3FEE0A3F5207808E0A3F608DFFAE065
:1005C300A3FFE0A3C0E0E0A3C0E0E0A3C0E0E0A39A
:1005D300C0E0E0A3C0E010AF0885821085831180DE
:1005E30008858210858311D2AFD083D08202053370
:1005F300C0E0C3E49396087401939618400FE49304
:1006030066700808740193661870007019A3A3C379
:10061300E49396087401939618A3A3400DD0E0D0F9
:10062300E0D0E002050DA3A3A3A3A3A3D0E022D0AF
:1006330083D082C5F0E493A3C5F0C395F0F5F0E44D
:1006430093A3C395F04005E5F0048001E475F0023F
:10065300A42582F582E5F03583F583E493A3C0E016
:10066300E493C0E022C0E074F21203C2E589A2E180
:10067300500312192C758900C2C57F01020479C089
:10068300E074F21203C2E58BA2E0500312192C7539
:100693008B00C2E880E47404800474028000CCC040
:1006A300E0EDC0E0E510C39CCCAD1150011D10AFCF
:1006B300068C108D1180068C108D11D2AF12079508
:1006C300D0E0FDD0E0FC2274028000CCC0E0EDC09D
:1006D300E0E510C39CCCAD1150011D10AF068C108A
:1006E3008D1180068C108D11D2AF120773D0E0FDEF
:1006F300D0E0FC22C0E0C0F088F0E4936670080804
:1007030074019366187000A8F0A3A3700BD0F0D007
:10071300E0D0E0D0E002050DA3A3D0F0D0E022D0DA
:1007230083D082CCC0E0E493A360061207D5147093
:10073300FAE493A360061208C51470FAD0E0FCE44F
:1007430093A3C0E0E493C0E022C0E074F21203C2BA
:100753001219B07F01020479C0E074F21203C212CD
:1007630019B680EFC0E074F21203C21219BC80E321
:10077300CAC0E0E493A3C582CCC582C583CDC5833B
:10078300F0A3C582CCC582C583CDC583DAE5D0E0AD
:10079300CA22CAC0E0E0A3C582CCC582C583CDC549
:1007A30083F0A3C582CCC582C583CDC583DAE6D0E9
:1007B300E0CA22C008C3E096F50808A3E096420801
:1007C30008A3E096420808A3E09645087001D3D039
:1007D3000822C0E0E493A3D39C5010E493A3C39CEA
:1007E300400AD0E0D0E0D0E002073FA3A3A3D0E0CB
:1007F300227009080808226016181818C6C333C6E1
:1008030008C633C608C633C608C633C6D5E0EA22CF
:100813007404800A74038006740280027401C0E0C9
:10082300F40412082ED0E0120A7C222510F582105F
:10083300AF08F510400215118008F510400215119C
:10084300D2AF85118322C0D0251010AF08F5105008
:100853000205118008F51050020511D2AFD0D02245
:10086300BB0102E722C082C08389828A83BB000363
:10087300E08002E493D083D082226016080808C681
:10088300C313C618C613C618C613C618C613C6D5CF
:10089300E0EA22C3E0C696F608A3E0C696F608A3EC
:1008A300E0C696F608A3E0C696F622C0E074F212FC
:1008B30003C2C2C0E5D1A2E450031219E67F0102CC
:1008C3000479C0E0E493A36C7009D0E0D0E0D0E0F9
:1008D30002073FA3A3D0E022251010AF08F5104074
:1008E3000215118008F51040021511D2AF22E066FF
:1008F300701008A3E066700A08A3E066700408A3FA
:10090300E06622C3E09608A3E09608A3E09608A356
:10091300E096A2D265D03322C3E096F008A3E09616
:10092300F008A3E096F008A3E096F022E026F00892
:10093300A3E036F008A3E036F008A3E036F022E0A7
:1009430026F608A3E036F608A3E036F608A3E03659
:10095300F622E627F60809E637F60809E637F60829
:1009630009E637F622E657F60809E657F60809E6D8
:1009730057F60809E657F622E056F608A3E056F6BE
:1009830008A3E056F608A3E056F622C0E0E8C0E06C
:10099300E58124FCF8E6A2E7D0E0F8D0E022E046C7
:1009A300F008A3E046F008A3E046F008A3E046F011
:1009B30022E056F008A3E056F008A3E056F008A39F
:1009C300E056F022E647F60809E647F60809E64747
:1009D300F60809E647F622700422600D18C6C333F1
:1009E300C608C633C6D5E0F41822C0E074F2120379
:1009F300C2C2C7121AEE7F01020479E4C396F60855
:100A0300E496F608E496F608E496F622C3E7960819
:100A130009E7960809E7960809E79622C3E09608CE
:100A2300A3E09608A3E09608A3E09622C6F4C608BE
:100A3300C6F4C608C6F4C608C6F4C62275D0007547
:100A4300814075100075110400020421600C08C672
:100A5300C313C618C613C6D5E0F422E6F008A3E60E
:100A6300F008A3E6F008A3E6F022E0F608A3E0F618
:100A730008A3E0F608A3E0F622CAC0E0E6F0A30864
:100A8300DAFAD0E0FA22E0FAA3E0FBA3E0FCA3E069
:100A9300FD22EAF0A3EBF0A3ECF0A3EDF022E5C70F
:100AA30054F84401F5C77901222510F582E4351184
:100AB300F5832212054023DF021205400BE00212E8
:100AC3000540D9E00212054018E30212054055E43F
:100AD30002120540F0E402120540EBE50212054064
:100AE30009E602120540918701120540C4870112ED
:100AF3000540E38701120540058801120540178868
:100B030001120540458801120540A78801120540DE
:100B13002C8901120540CA8901120540168A011267
:100B23000540558A01120540728A01120540A18AC7
:100B330001120540F78A01120540128B011205408C
:100B4300398B01120540748B01120540B48B0112DD
:100B53000540D58B01120540258C01120540DF8C21
:100B630001120540648D01120540EE8D011205400E
:100B7300CF8E01120540FC8E011205404B8F0112EE
:100B83000540738F011205409C900112054014919A
:100B9300011205403A91011205406091011205408E
:100BA300849101120540969101120540A091011212
:100BB30005404A9201120540B692011205407D9309
:100BC300011205408593011205401094011205405E
:100BD30044940112054054940112054019950112E1
:100BE3000540C7950112054026960112054033972B
:100BF30001120540AC97011205400098011205400F
:100C0300759801120540139A01120540279A0112A3
:100C13000540899A011205400E9B011205405B9B1A
:100C230001120540799C011205406B9D011205409C
:100C3300D89D01120540549E01120540CA9E01121F
:100C43000540029F01120540DF9F0112054002A1EA
:100C5300011205405FA101120540A8A10112054040
:100C6300D0A10112054059A201120540EFA20112C1
:100C7300054055A3011205407AA301120540F3A3D1
:100C83000112054087A4011205401AA5011205406F
:100C93003EA50112054062A60112054075A6011288
:100CA3000540E6A601120540FBA6011205405CA71C
:100CB30001120540A6A701120540E1A70112054054
:100CC30002A901120540C9AA01120540D3AA0112C3
:100CD3000540DDAA01120540E7AA01120540F1AA69
:100CE300011205400BAB0112054015AB0112054083
:100CF3001FAB0112054029AB011205404AAB01129B
:100D0300054098AB01120540A2AB01120540C6ABEA
:100D130001120540EAAB0112054043AC0112054044
:100D230088AC01120540A6AC011205401DAD0112AD
:100D3300054067AD011205409DAD011205401CAE93
:100D430001120540A5AE0112054082B00112054013
:100D53004AB10112054070B10112054058B20112A7
:100D6300054030B501120540BDB60112054085B8F6
:100D730001120540CBB801120540F5B90112054037
:100D830046BA01120540B1BA01120540BBBA0112BD
:100D9300054081BC0112054035BD0112054087BDE8
:100DA3000112054043BE0112054008BF0112054070
:100DB30093C001120540B6C0011205400AC10112D9
:100DC3000540F8C1011205402AC2011205407EC246
:100DD3000112054083C301120540CAC30112054035
:100DE30010C4011205406FC401120540BCC50112B5
:100DF300054008C60112054012C701120540B9C9D2
:100E030001120540DDC901120540A8CB01120540BE
:100E1300FFCB01120540FBCC0112054084CD01122A
:100E23000540DECD011205403ECE01120540CDCE78
:100E33000112054043CF01120540AECF0112054018
:100E4300B02200120540022300120540F2240012D2
:100E53000540A12500120540D52500120540FF26B7
:100E630000120540B62900120540C42A00120540AD
:100E73009D330012054057360012054043370012D8
:100E830005400938001205405B3900120540603AFD
:100E930000120540733D00120540853F00120540D6
:100EA300E53F00120540BD4000120540E840001236
:100EB3000540864100120540644200120540454347
:100EC300001205401544001205404244001205403B
:100ED300644400120540A646001205406047001214
:100EE3000540B747001205401A4800120540D04894
:100EF30000120540054900120540594900120540FA
:100F0300894900120540C74900120540154A0012DD
:100F130005401A4A00120540714A00120540994AD9
:100F230000120540944B001205401C4C0012054072
:100F33009D4E001205405A4F00120540EF5000121B
:100F430005406453001205400C54001205408454BC
:100F530000120540AD5600120540525700120540DD
:100F6300995700120540655900120540795900123E
:100F73000540865900120540B05900120540BC597E
:100F830000120540DA5900120540BC5B001205400F
:100F93001B5C001205406F5C001205407A5D001275
:100FA3000540D65D001205408D5E00120540D55EFA
:100FB300001205406F5F00120540536000120540A8
:100FC3000961001205403A620012054020630012D5
:100FD3000540C863001205405C6400120540736459
:100FE30000120540AC6400120540B66400120540CF
:100FF300C26400120540E06400120540246500123B
:101003000540926500120540B96500120540D3659D
:101013000012054028670012054072670012054060
:101023007B6800120540A068001205400A6900129F
:1010330005406C6900120540DD6900120540EF6A46
:10104300001205409A6B00120540826C00120540A5
:10105300E06C001205406A6D001205405B6E0012E1
:1010630005408A6E00120540F16E00120540CB6FF9
:1010730000120540F16F001205405A70001205403E
:101083007F7000120540A57000120540DB7000124E
:101093000540F77200120540E77300120540AD7476
:1010A3000012054047760012054090760012054075
:1010B300BC7600120540437700120540AB7700125F
:1010C3000540FD77001205402378001205406A7839
:1010D30000120540967800120540CB7800120540B7
:1010E3001B79001205407979001205402C7A001211
:1010F3000540EE7B00120540607C00120540897CB0
:1011030000120540FD7C00120540727D001205406F
:10111300B47D00120540F07D00120540157E0012DB
:1011230005405B7E00120540787E00120540157F66
:101133000012054062E703120540ADE703120540C4
:10114300918002120540BF80021205407D81021288
:1011530005406382021205406A8302120540F5844A
:10116300021205406A8502120540198602120540E3
:10117300168702120540818702120540D4870212A6
:1011830005402888021205403288021205407888FB
:1011930002120540DB8802120540738902120540E2
:1011A300E88902120540D48A021205404F8B0212CD
:1011B3000540698B02120540988B02120540C58BCE
:1011C300021205405C8C021205406C8C0212054031
:1011D300BF8C02120540CB8C02120540D78C021241
:1011E3000540E08C021205402B8D02120540868DCE
:1011F30002120540D78D02120540F28D02120540FE
:10120300288E02120540498E02120540538E0212A7
:101213000540688F02120540868F02120540F88F41
:10122300021205400B90021205401990021205406C
:10123300BA90021205408E9102120540AF9202123B
:1012430005402B9302120540359302120540A893E3
:1012530002120540BF930212054001940212054099
:101263003F94021205406E9402120540A5940212A7
:101273000540C39402120540E794021205402895E5
:10128300021205401796021205405D9602120540B0
:10129300889602120540FB9602120540229702121D
:1012A3000540679702120540759702120540CE97D5
:1012B300021205400B980212054052980212054093
:1012C300839802120540A69802120540B1980212B3
:1012D3000540CF98021205408B990212054095995B
:1012E30002120540DA99021205401E9A02120540C5
:1012F300329A021205401D9B02120540309B0212D6
:101303000540459B02120540ED9B02120540399CA6
:1013130002120540EF9C02120540FA9C021205409E
:10132300489E02120540749E02120540B59E0212A9
:101333000540CF9E02120540409F02120540CC9FFC
:101343000212054003A00212054066A202120540E4
:10135300EEA2021205406EA302120540B1A50212CD
:101363000540C1A502120540C4A502120540D0A53F
:1013730002120540E4A50212054003A6021205402D
:1013830036A602120540FBA60212054062A702120E
:101393000540C6A70212054050A80212054001A944
:1013A300021205402FA902120540C5A902120540E9
:1013B300F4A90212054016AA021205403DAA021220
:1013C3000540A2AA0212054055AC0212054058ACD2
:1013D30002120540C2AC02120540B5AD021205402F
:1013E3009CAE0212054063D9021205406AB0021294
:1013F30005402DB10212054066B10212054097B1B6
:1014030002120540A0B10212054084B20212054047
:1014130014B302120540B2B30212054072B40212B1
:101423000540EBB4021205401AB50212054057B548
:1014330002120540AC8A03120540BA8A0312054022
:10144300E4DE02120540688B03120540B08B0312E1
:101453000540B78D03120540998F0312054058923A
:1014630003120540849203120540A492031205401F
:10147300079303120540459303120540719303122A
:101483000540AB930312054012DE0312054042DE12
:101493000312054097DE03120540F693031205403D
:1014A300009403120540449403120540EB94031285
:1014B30005400E9503120540AE950312054076983C
:1014C30003120540849803120540D7980312054080
:1014D300FD9803120540559903120540C59903125F
:1014E3000540189A03120540819A03120540AF9AEA
:1014F300031205402D9B031205408D9B03120540EB
:10150300CC9B03120540DE9B03120540F09B0312A4
:1015130005400F9C03120540B19C03120540EB9C50
:101523000312054056E403120540A6DA03120540F0
:1015330005DB031205402EDB0312054024DC0312F6
:1015430005403EE6021205401DE70212054059E739
:101553000212054002E90212054044E90212054065
:10156300EFEA0212054033EB02120540FBEB0212D5
:10157300054088EC0212054019ED021205406FED9B
:1015830002120540AFED0212054055EF021205406D
:10159300FAF00212054048F30212054056F3021214
:1015A3000540BEF302120540FAF602120540FFE8B9
:1015B3000312054015E90312054004E80312054030
:1015C300ADCB03120540C0CB031205404DCC031233
:1015D300054088CC03120540A3CC03120540C8CCB8
:1015E30003120540FCCC031205402DCD0312054028
:1015F3004CCE03120540E6D80312054053D903121B
:1016030005406FD903120540B1D903120540DAD959
:101613000312054072DA031205408BDA0312054008
:10162300A3DA03120540D3A5031205406FA60312E4
:101633000540A1A703120540B5A8031205400BAA54
:1016430003120540EFAA031205402CAC0312054018
:1016530044AC0312054050AD031205400080031251
:1016630005404B8003120540378103120540EA8190
:1016730003120540FF81031205404982031205400E
:10168300988203120540AB8203120540F7820312CE
:1016930005400B830312054045830312054057841D
:1016A30003120540BA8403120540C984031205409E
:1016B3000A85031205403E85031205409E850312E9
:1016C3000540BC8503120540368603120540C287D8
:1016D30003120540E48703120540198803120540ED
:1016E300448803120540548803120540608803129E
:1016F3000540638803120540AF88031205404E89F5
:1017030003120540738903120540968903120540AD
:10171300A689031205401A8A03120540358A03126B
:101723000540578A03120540928A03120540A18A95
:1017330003120540B7E703120540CFE70312054044
:10174300009E031205404F9E03120540F19F0312B2
:1017530005409DA103120540E5A1031205401CA30A
:1017630003120540A9A403120540CBA403120540AC
:101773001DA5031205409FA50312054000D00112C9
:10178300054021D001120540A7D001120540FBD02E
:10179300011205407CD101120540D8D10112054048
:1017A30024D20112054097D2011205401BD3011226
:1017B300054091D301120540D3D301120540FDD753
:1017C30001120540C6D901120540C1DA01120540D4
:1017D30009DB0112054099DC011205400FDF0112FC
:1017E30005409EDF01120540D9E00112054017E4D0
:1017F3000112054027E40112054077E50112054077
:10180300A3E501120540C2E60112054012E80112E8
:101813000540C4E80112054056E9011205400EEAED
:101823000112054097EA0112054048EB01120540F9
:1018330028EC011205409DEC0112054058EF0112FE
:10184300054009F00112054059F00112054029F243
:1018530001120540E3F2011205404AF3011205406B
:10186300ADF40112054054F601120540BDF7011213
:1018730005405AF80112054022F90112054059E6C4
:101883000312054092E60312054097E60312054052
:10189300C2E60312054037D303120540A1D3031256
:1018A30005405AD403120540C0D40312054035C67F
:1018B300031205408EC6031205401DC803120540DE
:1018C300D9E60312054023E7031205405DDC03124A
:1018D30005406BDC031205403DE903120540119DF1
:1018E30003120540219D031205403F9D031205404D
:1018F300A09D0312054026E2031205404DE20312A8
:101903000540D2E2031205402BE303120540DD9D9F
:101913000312054044E30312054066E30312054046
:10192300D0E303120540DBE3031205401FE4031277
:101933000540A6B203120540B4B203120540F5B246
:10194300031205400FB30312054060B303120540B1
:1019530061B40312054086B403120540A3B4031215
:101963000540C0B403120540E5B4031205401EB59B
:10197300031205405CB503120540D3B503120540BD
:101983006FB60312054024B70312054032B70312A2
:101993000540ACB70312054068B803120540F3BA1B
:1019A300031205409BDF03120540D4DF03120540F9
:1019B300F1DF031205404FE003120540B4E00312C8
:1019C30005407FAD03120540ECAD03120540A6AE02
:1019D3000312054013AF0312054039B0031205404B
:1019E300ACB10312054010B2031205405CB20312FE
:1019F300054065B20312054074B20312054087B275
:101A0300031205409DB20312054072FA011205400C
:101A1300C5FA0112054039FD011205406BFD0112A3
:101A230005408DFD01120540A6FD01120540BFFDD5
:101A330001120540F1FE0112054087FF0112054026
:101A430017D70312054049D70312054055D7031290
:101A5300054088D703120540B1D703120540DFD7ED
:101A6300031205405CD8031205408BD803120540CE
:101A730063CE0312054089CE03120540C6CE03127E
:101A83000540D8CE03120540F4CE0312054062CFC1
:101A9300031205406BCF03120540CACF0312054062
:101AA300EECF03120540ADD003120540BAD00312A6
:101AB3000540CBD0031205408EFF02120540DBFF29
:101AC30002120540D8BE0312054000C003120540B0
:101AD3000DC0031205402CC00312054042C003127F
:101AE300054056C003120540D0C0031205404EC145
:101AF30003120540C7C1031205400FC2031205407C
:101B03001FC203120540567F001205407A7F001260
:101B13000540A27F00120540CA7F00120540F9D09C
:101B23000312054012D1031205401ED103120540D2
:101B330032D10312054050D1031205405AD103128A
:101B4300054064D10312054077D103120540ABD1A0
:101B530003120540E4D10312054015D203120540D8
:101B630063D203120540B0D203120540CBD2031255
:101B73000540D5D203120540E6D2031205402CD30B
:101B8300031205404FE8031205403BF702120540DC
:101B930067F70212054083F70212054096F7021217
:101BA3000540ACF7021205401CF8021205404FF83D
:101BB30002120540A9FB02120540DFFC0212054098
:101BC30012FD0212054077FD0212054066FE021265
:101BD30005408EFE02120540A3FE02120540B3FE2D
:101BE30002120540F7FE021205404CFF02120540A7
:101BF30062FF02120540F3E0031205400EE10312F7
:101C0300054037E10312054051E10312054076E137
:101C13000312054095E103120540ADE103120540AF
:101C2300DBE103120540F5E10312054097E80312D7
:101C3300054058BB031205405FBB031205406BBC54
:101C4300031205409BBC03120540C1BC03120540AF
:101C5300F4BC0312054006BD0312054040BD031248
:101C63000540A6BD03120540DFBD031205402BBE90
:101C73000312054058BE0312054078BE0312054007
:101C830031D50312054049D5031205402CD6031262
:101C9300054054E503120540ABE503120540E8E5B2
:101CA3000312054029E6031205402EC20312054024
:101CB3004DC20312054098C203120540B4C2031279
:101CC3000540ECC203120540F9C20312054016C3D6
:101CD30003120540F9C30312054030C40312054043
:101CE300E7C403120540F2C40312054004C50312FE
:101CF30005400DC50312054017C503120540BEC8B4
:101D0300031205409FCB03120540AA9D0312054011
:101D1300C6FF01120540D7E8031205401FE903126D
:101D23000540FBD6021205409BD502120540F4D4B0
:101D3300021205401FD30212054066D1021205406C
:101D4300EDD00212054091D00212054034D00212A8
:101D530005400AD002120540FECD02120540CACD4D
:101D63000212054083CD0212054058CD02120540F0
:101D7300AECC0212054061CC02120540CFCA02125A
:101D83000540CCCA02120540DEC902120540AAC9A9
:101D930002120540E5C80212054018C702120540A9
:101DA300CBC602120540B3DE0212054095DE0212D5
:101DB300054027DE02120540E1DD021205404CDD3D
:101DC300021205409CC60212054099C60212054044
:101DD3008CC6021205409BDC0212054052C6021259
:101DE300054044C602120540FAC40212054076C4F7
:101DF30002120540308B031205408EDC02120540AF
:101E03003CC402120540E0C302120540B3C30212F0
:101E13000540C0C0021205407EC00212054072C0D8
:101E230002120540D2BF0212054009BF021205404B
:101E330059BC0212054085B90212054046B9021287
:101E43000540E5B70212054091B702120540D5B629
:101E530002120540A8B602120540FFB50212054062
:101E630098B502120540D2B50212054027AF020011
:101E7300000080FBE473000136360101000102011A
:101E83000001030100010401060605020000070129
:101E930000340801000F090401010D0100FF0E08C1
:101EA300000017020000190100FF1A0100011B01C5
:101EB30000051C0100081D0200001F010001200194
:101EC3000001210200002301000F2402000026016B
:101ED300000127010308280200FF2A0100072B0144
:101EE30002402C0100002D0100012E0100012F01F1
:101EF30000FF30010B1C310800003A010008030009
:101F030071003001600011007000310220035004A1
:101F13008000100061000000140063007300720071
:101F230062004300000013000600000000000400EC
:101F3300120000000000000000000400040037004D
:101F430037003C0244000000000000000000650070
:101F53000000350081000000050000008300000040
:101F630001037103010301030103010301032203BD
:101F73000203010310030003000300030003000333
:101F830000030003420300032403060300030003CA
:101F93000403120325032303250323030403040378
:101FA30000030003000344030003000323030003AF
:101FB30065032100350381030003050300030003C8
:101FC3000003030471040204600411047004020496
:101FD30002040104020410046104000414046304F1
:101FE300730472046204430400041304060400042B
:101FF3000004040412040004000400040004510457
:102003006400000400040004440400040004000409
:10201300000465040004350481046400050400041D
:102023008304000401017101010101011101010196
:102033003101010101018001100161013B00140024
:10204300630173017201620143010001130106017F
:102053003D013500040112010001000100010001EE
:1020630004010401330133013C0144013201360010
:102073000001000165010001350081010001050136
:102083008201830100010302710230016002110227
:1020930070020102020202028002100261023A008F
:1020A30041006302730272026202430200021302DE
:1020B30038000002000204021202000200020002C1
:1020C300000204020402370037003C02440200020B
:1020D300390000020002650200023502810200029B
:1020E300050282028302000236000100060000009E
:1020F3000F0000000000000000000000000003FFCC
:10210300FF00000403FFFF0000FFFF0FF4010005C1
:10211300C4040320000100000B00000000000000C5
:10212300000301000036181300D01701003618020F
:10213300009A170300A0170400A6170500AC1706A2
:1021430000B817FFFF000001700E06A00E089A0EDC
:102153000BAC0E10040E02760E058E0E077C0E0CD1
:102163005E0E0D6A0EFF000003000300040008006A
:1021730010001F003E007B00F600EC01D703AF0701
:102183005D0FB91E713D00007E12AE1284128A12D9
:10219300A8129C129612B412BA12C012CC12901248
:1021A30078127212D5C5C5B5A5A5958585757565D2
:1021B30065555545453535252515059C36063A7033
:1021C3003DD9404344AD47174B814EEA5100160FAA
:1021D30000000B150B020002220F32000006567797
:1021E3007777777777777777777777777777000169
:1021F30002030405060708090A0B0C0D0E0F6213F0
:1022030074137A134812801342124E1282117C11F6
:10221300B811BE11B2116A11D413F213F813DA1301
:102223006C1EE0130C0E020B040B0A0708000F00D0
:10223300383C3E363B3B352B432C00011916181610
:10224300161523030000034948424D1817250502BC
:10225300303017181921301B1D1F30303016181954
:1022630020231A1C1E30A212C612EC13D212D8124B
:10227300C81386138C13981392138E11941188111B
:10228300C4110005150D091008040000000000002A
:102293009A11AC1100BE040A150004000E000309D4
:1022A300280F010809000C040810050C08C082C09F
:1022B30083E99004CEF0E4900483F0121C80900430
:1022C300E1E4F0A3F09004CFF0A3F01210AA120BF4
:1022D30070120D3E121C86900445E4F0A3F09004A6
:1022E300F3E07002A3E060099004F3125C6B121E2A
:1022F300779022A4E493FA7902121CE002579274B5
:10230300F2120356EAFEEBFF74805FF9E47001E911
:10231300706DEE54207003022454750A007C027D14
:10232300007A201224E77C0079047A007B00120EE5
:10233300F48A088B09807F0CEC75F003A4A9F024C0
:102343004AF582E93421F583E49364FF602AE49338
:10235300FA8508828B83E06A70DDAA08EC75F003C6
:10236300A4244BF582E93421F583E493C0E074019E
:1023730093F583D082121E77AA08AB091214CA9070
:1023830004CEE0F91214D68A088B09EA7001EB60D7
:10239300047C0080A3EEFA74806FFB0224D07401E6
:1023A300850882850983A3A3A3A3A3A3A3A3A3F05F
:1023B300850C08850D09E5087002E509606E7C004F
:1023C3007904AA08AB09120EF48A0C8B0D750A0165
:1023D300E508240412760C24FFF0A3E034FF124630
:1023E300A17002A3E070C9850882850983A3A3A312
:1023F300A3A3A3A3A3A3A3E0640170A2850882857A
:102403000983A3A3A3A3A3A3E05404709174068533
:102413000882850983A3A3A3A3A3A3A3A3A3F07AF9
:10242300B78508828509831225968084120EC47CA1
:102433000079017A007B00120EF4EA7001EB700957
:10244300E50A70057A201224DC74206EFAEF022369
:102453009DEE54106007120D74741080EEEE54401C
:102463006007120DEC744080E2EE54806007120C9A
:1024730096748080D674015FF9E47001E9601A9064
:1024830004F5E07002A3E060099004F5125C6B129E
:102493001E77EEFA740102239C74025FF9E4700163
:1024A300E9600A121074EEFA740202239C74045F4A
:1024B300F9E47001E960121260DC12591879011213
:1024C3003739EEFA740402239C7A007B008005748A
:1024D300031208497F060205AD7B009004CEE0F9A4
:1024E3001215DE227B009004CEE0F91215D8227477
:1024F300F4120356EAFEEBFF7508018E828F83A365
:10250300A3A3A3A3A3E0544060051229AA802E909D
:10251300046EE0A2E150238E828F83A3A3A3A3A31F
:10252300A3A3E05410F9E47001E960047940800248
:1025330079001229AA120D4A8003120F7274FE6ADF
:10254300700374FF6B602C125C67125BB6120FF69C
:10255300E98E828F8360061250B9E480051250B968
:10256300740112433EFAA3E0FB121CDAE9F5097089
:102573000580127509CDAA098E828F83122596E9EB
:102583006003750800A908EEFAEFFB120ED0A90943
:1025930002474AE0240C126D49F9120E522274F6D6
:1025A300120356E9FEEAFF7A0F7B001214C4EA70A5
:1025B30001EB6019740C8A828B83F0EEA3A3F0EF16
:1025C3008A828B83A3F0125F6679008002791002FE
:1025D3005C1674F2120356EAFEEBFF8C088D098930
:1025E3000A740E120AACE0F50CA3E0F50D850C821B
:1025F300F583E4F0A31263B0E0F9120FD8E9602089
:102603001226EC701B8E828F83A3A3A3A3A3A3A381
:10261300A3A3126709850C82850D831259188003C1
:10262300750A00EE241D1226DE1206320109D92690
:102633004726612673267C266A269D26D926B02640
:10264300C926D226780C12081BAC08AD09EEFAEFA6
:10265300FB120D5C7402120849E9F50A8078EEFA60
:10266300EFFB120D62806FEEFAEFFB120DA4806692
:10267300EEFAEFFB12103280E0EE24171229926477
:10268300027053E50A700A126FB57003A3E0697014
:1026930045EEFAEFFB120FC6803CEE241712299287
:1026A30064027032EEFAEFFB120FAE80299004F74A
:1026B300E07002A3E0601FEEFAEFFB9004F7125CF8
:1026C3006B121E778010EEFAEFFB12103E8007EEBE
:1026D300FAEFFB12104AA90A0224D7124C1512264C
:1026E300E522E0F81263C1E0228E828F83A3A3A3C5
:1026F300A3A3A3A3A3A312631664022274F4120375
:102703005674DE1208DB8A088B098A828B83A3A3A3
:10271300E0F912474F7001EF700302280685088223
:10272300850983A3E064F16033850882850983A367
:10273300E064CD6027850882850983A3E0641A607D
:102743001B850882850983A3E064E9600F850882FD
:10275300850983A3E064E1600302289F8E828F834F
:10276300A3A3A3A3A3A3A3E05408F9E47001E9700E
:102773000302280E74058E828F83A3A3A3A3A3A3AE
:10278300A3A3A3F09004FBE07002A3E0600990040C
:10279300FB125C6B121E779004FDE07002A3E060F5
:1027A3003390046EE0A2E1502B8E828F8312762742
:1027B300A3A3A3A3A3A3A3A3124C0E88828983126A
:1027C300644B1210DAEA7001EB60099004FD125CAD
:1027D3006B121E778E828F83A3A3A3A3A3A3A3A3AA
:1027E300A3E06402701074068E828F83A3A3A3A355
:1027F300A3A3A3A3A3F0850882850983A3A3E0F978
:10280300120ED6120EC474220247477900120ED05C
:10281300E9700302289F90046EE0A2E1506B126DF1
:102823003E7002A3E060628E828F8312644B740356
:10283300120AAC126D50850882850983A3E064E90E
:10284300701B12299912081F850882850983A3E04A
:10285300F50A780A12081F1243E8120849740C1289
:102863000AAC123D4012334F1259187408120AACC5
:10287300E06004794080027900740E120AAC124CB5
:102883000E740C120AAC12333C8E828F83A3A3A363
:10289300A3A3A3E04420F0A3E00227868508828552
:1028A3000983A3E0C0E07402120AACD0E01256A57B
:1028B300126EEBEE240B122992851082851183AAE6
:1028C30082AB837005120CBA8003120FD285088283
:1028D300850983A3E064F16053850882850983A396
:1028E300E064CD6047850882850983A3E0641A60AC
:1028F3003B850882850983A3E064E1602F85088214
:10290300850983A3E064F060237402120AACE064D7
:10291300B7601912299912081F7403120AACE0F563
:102923000A780A12081F1243E812084990046EE05D
:10293300A2E140030227D78E828F83A3A3A3A3A37D
:10294300A3A3A3A3E06402702A8E828F83A3A3A30D
:10295300A3A3A3E05404601B1229AA120FF6E97083
:102963000D125C6774FFF0A3F074050227EB740388
:102973000227EB850882850983A3E064E9600302EB
:1029830027D7EEFAEFFB1210500227D7EE240FF5EC
:1029930082EF125665228E828F8312670DE8FAE961
:1029A300FB750A01780A228E828F831226E5FAA329
:1029B300E0FB2274F4120356EAFEEBFF7508007580
:1029C30009008E828F83A3A3A3A3A3E0603E7508AF
:1029D300088E828F8312644279FF121DB8EA700158
:1029E300EB601075082C8E828F83A3A3A3A3A3E0AF
:1029F300D2E0F08E828F83A3A3A3A3A3E054036446
:102A0300016003022A9A430811022A9AEE2418123B
:102A13002992603DEE241A122992701C126FB57030
:102A230003A3E0697005750822806C900483E06459
:102A3300047064750901805FEE241B127636241A34
:102A4300122AAFEE2419122AB7120DB6E970488084
:102A5300E21226EC7003750801126FB57003A3E050
:102A6300697006E508D2E1F508E5088E828F83A335
:102A7300A36011E07006E508D2E58019E508D2E607
:102A8300F5088003E06010EE241D124E8664016099
:102A930006E508C2E0F508E508A2E1400AE5097089
:102AA30006E508D2E7F508A90802474AF582EF12BE
:102AB3005665FA22F582EF122ABE221272E9E0F974
:102AC3002274F012035674D21208DB7401120AAC9A
:102AD300126720120AAC12604B7408120AACE4F0BD
:102AE300A3F0740C120AACAC82AD837401120AAC6D
:102AF3001233827401120AAC1263BD126449120FBD
:102B03004E7401120AAC12644FF8A3E0F97419125F
:102B13000AAC125918740C120AACAA82AB83120EB7
:102B230064E9851082851183F07412120AACE060A7
:102B3300277423120AACE0FD740D120AACE0FC7496
:102B430001120AAC123387FAA3E0FB7901120ADA05
:102B5300E96003023330801490046BE0600E85104B
:102B630082851183E0A2E140030233308510828520
:102B73001183E0A2E6502D7429120AAC1226E164F7
:102B830003700D7429120AAC125F51E0640D6014D6
:102B9300740C120AACAA82AB83121026E96401708A
:102BA300030233307401120AACE0242C12469DF860
:102BB300A3E0F9900481E0687003A3E069703575C0
:102BC3000800780812081F780812081F7403120AF5
:102BD300AC123396F97403120AACE0242A12335868
:102BE3007403120AACE02412FAA3E03400FB12448B
:102BF30003120849740F120AACE0FA900471E06AF8
:102C030060030233307412120AACE07003022CEA40
:102C13007401120AACE0242A12469DFCA3E0FD7461
:102C230001120AAC123375FAA3E0FB1210DA740A2C
:102C3300120AAC125BB6740A120AACE07002A3E08B
:102C43007003023330740D120AACE0F87401120AF7
:102C5300AC123347F8A3E03400F9740D28F582E48D
:102C630039F583E0FA740A120AAC123343E06A605E
:102C73001E740A120AACA31237EDEAF090877F782C
:102C830008120A6D740A120AAC12337C120A5E79B6
:102C930004740D120AACE0FA7401120AAC12338701
:102CA3002AFCA3E034008C82F583A3AA82AB8312AF
:102CB30014B28A088B098C0A8D0B740A120AAC129F
:102CC3003343A3780C120A6D780C7908120A0F505B
:102CD300030233309087737808120942740A120A88
:102CE300AC12337C120A5E90046EE0A2E150030240
:102CF3002DCA900483E064046008E0640960030261
:102D03003330851082851183E0A2E550647401128B
:102D13000AAC123396C0E07405120AACD0E0F0742A
:102D230001120AAC12469AC0E07406120AACD0E053
:102D3300F07401120AACE0243012469DC0E074071F
:102D4300120AACD0E0F07401120AACE02424125051
:102D5300BC1206997409120AACAC82AD83741012CA
:102D63000AACAA82AB83120CC07404120849023362
:102D730030A2E640030233307429120AAC126456BF
:102D8300701C7423120AACE06402600302333074D3
:102D93000C120AACAA82AB83120FC6023330742919
:102DA300120AAC12333560030233307423120AACB7
:102DB300E064046003023330740C120AACAA82ABE1
:102DC30083120FBA023330741D120AACE0602D7403
:102DD30001120AACE0240212469DFAA3E0F5838AAD
:102DE30082A3A3A3A3A3A3E0141260F4A3A3A3E069
:102DF300C0E0741D120AACD0E0F0700A8510828521
:102E03001183E0C2E7F0851082851183E0A2E350CD
:102E13007A7408120AACE4F0A3741012569CA2E26E
:102E230050187411120AACE054E3F07411120AAC96
:102E3300E0131313541FFAE08038A2E450367411E0
:102E4300120AACE0541C1313543FFA600974076A66
:102E5300600E1AEA700A851082851183E0C2E7F0DA
:102E6300EA333354FCC0E07411120AACE054E3FAC1
:102E7300D0E04AF07411120AACE0C0E07401120A07
:102E8300AC125F4BA31250DAD0E0F0900483E064FD
:102E9300046005E0640970507415120AAC126FC225
:102EA3007003A3E06960197415120AAC1226F96065
:102EB3000F7411120AACE05403640160030233304F
:102EC300740E120AACE07003022D107429120AACBE
:102ED3001264567003022D857429120AAC1233351D
:102EE3006003023330022DAE7E008510828511838C
:102EF300E054617003023033E0A2E04003022F8DFF
:102F03007401120AAC123375FCA3E0FD740C120AAF
:102F1300ACAA82AB83120DF2E97065120F7EE9FE53
:102F2300851082851183E0A2E7505F7401120AAC19
:102F3300E02412123358740C120AACAA82AB831227
:102F43000DF8E9851082851183602DE0A2E3500B13
:102F53007403120AAC74FFF0A3800F7415120AAC49
:102F6300126966120AACE8F0A3E9F07408120AAC1D
:102F7300E04404F0A3E08011E0C2E5F07E00800AA3
:102F8300851082851183E0549FF08510828511831B
:102F9300E0A2E550617401120AAC123396C0E074EA
:102FA30005120AACD0E0F07401120AAC12469AC0C2
:102FB300E07406120AACD0E0F07401120AACE0240B
:102FC3003012469DC0E07407120AACD0E0F07401E1
:102FD300120AACE024241250BC1206997409120A96
:102FE300ACAC82AD837410120AACAA82AB83120C10
:102FF300C07404120849851082851183E0A2E6405B
:103003000302324D7403120AAC8582088583097862
:103013000812081BEEF97403120AAC12338D120A5C
:10302300ACAA82AB83120E58740212084902324BC7
:10303300740E120AACE0640170387429120AAC12DF
:1030430026E16405702C7403120AAC85820885831B
:1030530009780812081B79007403120AAC12338D25
:10306300120AACAA82AB83120E58740212084902E8
:103073003330741D120AACE0701879007415120A0B
:10308300AC124C0E7417120AAC12644B120D6E0282
:103093003330120ECAE960030233307424120AACCF
:1030A300E070030231707427120AAC124C0E7426BE
:1030B300120AACE0FA7425120AACE0F9120DB6E973
:1030C30070030231627426120AACE0701174151297
:1030D3000AAC126966120AACE8F0A3E9807074279F
:1030E300120AAC12644B7426120AACE0F9120DB04A
:1030F3007403120AAC125BB67414120AACE06004D7
:10310300780880027800E82408FA7413120AACE005
:103113006004780880027800E82AFA7411120AAC75
:10312300E06004780180027800E82AFA0AEAF87479
:1031330001120AAC123347FAA3E034008A82F58302
:10314300E014F07408120AACE04440F0A3E0F0127B
:103153000F7EE9FE7427120AAC1272DB02324D7441
:1031630027120AAC12644B12153C02333074151249
:103173000AAC126966120AACE8F0A3E912569CA2E3
:10318300E350047A4080027A00EAF50878081208CE
:103193001F7425120AACAC82AD837416120AAC12EA
:1031A300644B7411120AACE0F9120E227401120876
:1031B30049E960177408120AAC1261EE7401120A2D
:1031C300AC1233871263BCE0543FF07424120AAC90
:1031D300E060277415120AAC124C0E7425120AAC67
:1031E300AA82AB83120F487403120AAC125BB67443
:1031F30008120AACE044401261F1740E120AACE00A
:103203006401601579007417120AAC124C0E741520
:10321300120AAC12644B120DBC851082851183E037
:10322300A2E350047940800279007417120AAC12A9
:103233004C0E7415120AAC12333CE9600874081280
:103243000AAC1261EE120F7EE9FE7403120AACE0BF
:1032530064FE7004A3E064FF70027E008510828523
:103263001183E0A2E74003023330EE7003023330F0
:103273007401120AAC12336CFA7B001215368A0CF5
:103283008B0DEA7001EB70030233307401120AAC48
:10329300125F4B126C461208177404120AAC1233F5
:1032A3006CFC7D0012532612084990046BE07008F1
:1032B3007412120AACE060217423120AACE0FD74AC
:1032C3000D120AACE0FCAA0CAB0D7900120ADAE984
:1032D3006007AA0CAB0D02316A740E120AACE0C08F
:1032E300E0742B120AACD0E0F0742C120AACE4F0B8
:1032F300A3F0742B120AAC8582088583097808121F
:10330300081B740A120AAC12069DEEF5087808121F
:10331300081F7406120AAC1233827408120AAC1224
:103323005BA7120F367405120849E970A5742E02C3
:1033330050B11263BDE06407221258CE120D56221B
:103343001260FF2212334FA3A3E02822E0FAA3E086
:10335300F5838A822212335C22FAA3E03400FB8ACB
:10336300828B83E0FCA3E0FD22123370221250E42F
:10337300E022E02412126D49221250E07808221252
:103383003370F922125F4FA3E022E0241212335C60
:10339300740E22E0242E126D492274F01203567427
:1033A300EA1208DB8A0E8B0F124097750901850E0E
:1033B30082850F83A3E0F50CE50E2402FCE50F12D2
:1033C30040AC7408120AAC12604B740A120AAC7453
:1033D30002F07413120AACE4F0901B30E07010EEAC
:1033E3007001EF700AE50C70067509C302358A9007
:1033F3000483E0640860067509C2023586850E827F
:10340300850F83A3A3A3A3A3A3A3A3A3A3E0A2E1E1
:10341300500EA2E350057508048011750803800C53
:10342300A2E350057508028003750801EE7001EFF1
:10343300607E8E828F83A3A3A3A3E06404600D8EBA
:10344300828F83A3A3A3A3E06403700C74046508B1
:10345300602C7403650860268E828F83A3A3A3A3C5
:10346300E06402600D8E828F83A3A3A3A3E06401B3
:10347300702474026508600674016508700B127489
:1034830097120AAC12591880278E828F83A3A3A3A5
:10349300A3E06402600D8E828F83A3A3A3A3E064E1
:1034A300017006126584121E771236497E007F0072
:1034B3007408120AACE064FE7004A3E064FF703C7D
:1034C300E50C60179004C0E06402700F901B371284
:1034D300749B120AACE8F0A3E98020850E82850F65
:1034E30083A3A3A3A3A3A3A3A3A3A3E05402F912B7
:1034F3000D7A7408120AACEAF0A3EBF07408120A0E
:10350300ACE064FE7004A3E064FF70057509C78036
:1035130072E50CF50A780A12081F850E82850F835F
:10352300A3A3A3A3A3A3A3A3A3A3E0F912363E7467
:1035330009120AAC12644B120CDE7401120849E939
:103543007041A90812363E7408120AAC1237328A47
:103553000A8B0BAE0AAF0BEE7001EF601E740265AF
:103563000C700D8E828F83A3A3A3A3A3E0D2E3F0F9
:10357300740A120AACE4F0F50980087408120AAC64
:1035830012604BE50C700F851082851183AA82AB04
:1035930083121CC28010FCA908851082851183AA9E
:1035A30082AB83120FB4E9FAEE7001EF6053E50CBE
:1035B30060208E828F83A3A3A3A3A3E0D2E6F0743B
:1035C30002650C700D8E828F83A3A3A3A3A3E0D205
:1035D300E5F0850E82850F83A3A3A3A3A3A3A3A3CF
:1035E300A3A3E0A2E6500D8E828F83A3A3A3A3A37C
:1035F300E0D2E7F08E828F83A3A3A3A3A3A3E00467
:10360300F0E5097003EA602EFC7D007A017B10125D
:103613001C8CEE7001EF60031236497408120AAC79
:10362300E064FE7004A3E064FF600B7408120AAC4C
:10363300126588121E7774160250B1E50E2402FC3F
:10364300E50F3400FD22E50E2402FAE50F3400FBFA
:10365300120BB22274F712035674F71208DBEAFE58
:10366300EBFF900483E06403600DE064016008E015
:103673006409600302372D8E828F83A3E060030207
:1036830037097C007D007A027B00121C8CEE240239
:10369300FAEF1260291267099004741259187953CA
:1036A300121CBC7900123739900483E06409600965
:1036B30090048112644B1210D47401125D7174046E
:1036C300900483F07401120AACAA82AB83794A1284
:1036D3001CB67401120AACAC82AD837A797B0412F6
:1036E3001CA479007401120AACAC82AD83900477F8
:1036F30012373290046EE0A2E35004D2F08002C28B
:10370300F0125D5780218E828F83A3AE82AF83FC3C
:103713007D007A037B10121C8C8E828F83E0F9125A
:103723003739E4900483F0120EA6740902689812E4
:1037330058CE120B82229004811258CE120CD8223A
:10374300C082C083900445E07002A3E070419004FE
:1037530083E01207220003016537057437068337B8
:10376300923790044DE07002A3E0607B90044D809B
:1037730070900449E07002A3E0606C90044980619A
:1037830090044BE07002A3E0605D90044B80529084
:103793000445E07002A3E06005123D4E70237900FA
:1037A3009004CF800909EA126AE0EB127608124905
:1037B300547001EB70EF9004CF12644B120CC6806F
:1037C300269004461237EDA3A3A3E064027005120A
:1037D300106880139004F9E07002A3E0600990047C
:1037E300F9125C6B121E77025792126102227A0F52
:1037F3007B001214C48A0A8B0BAE0AAF0BEE2212A3
:10380300670D9004812274F412035674EB1208DBE3
:103813008A828B83A3A3A3A37808120A6D78081264
:103823000A2F90048478081209B47D7F7E7F7C0080
:10383300750801750900750A00750B00EC7808120C
:1038430007F4900484780812097B90877F78081224
:1038530008F1602A7F009004CF801288828983A3B5
:10386300A3E06C70010F126ADFE91276081249C2F5
:103873007001E970E6EFC39D5004EFFDECFE0CEC24
:10388300C3941B40AB8A828B83A3A3A3A3C082C030
:103893008390877F7808120A6DD083D082780812CC
:1038A30008F1605BEA124C02FAE9FB8A828B8378A7
:1038B30008120A6D9004847808120A5E8A828B8348
:1038C3007808120A6D8510828511837808120A5EC2
:1038D3007404120AAC7401F090048AE0C0E0740529
:1038E300120AACD0E0F07407120AAC123A588065A1
:1038F30090048112644B120D02900481125BB69006
:1039030004CF1249C27001E9602688828983126458
:103913004B900481E06A7003A3E06B700A8882898C
:1039230083A3A3E06E60C9126ADFE912760880D22E
:10393300EE900476F0120E94E9601AE4900483F09A
:1039430090044FE07002A3E0600B79C490044F121F
:103953005C6B121E7702474574F412035674EB1224
:1039630008DB8A828B83A3A3A3A3A3A3A3A3A3128A
:1039730049C2FAE9FB7C00750801750900750A0064
:10398300750B00EC78081207F49004847808120988
:103993007B90877F78081208F16037901B36E0C070
:1039A300E08C08EA2508F582EB122995FDD0E0C3E7
:1039B3009D501F750801750900750A00750B00EC11
:1039C30078081207F47808120A2F900484780812F2
:1039D30009B40CECC3941B409E90877F7808120AAD
:1039E3006D75830475828478081208F16041900430
:1039F300847808120A6D8510828511837808120A6B
:103A03005E7404120AAC7401F07407120AAC7401F8
:103A1300F090048AE0C0E07405120AACD0E0F074C0
:103A230007120AAC123A587406900483F08023E418
:103A3300900483F0FCFD7A047B10121C8C90044FDD
:103A4300E07002A3E0600B79C490044F125C6B1228
:103A53001E77024745E412686D121CCE2274F212DF
:103A6300035674ED1208DBEAFEEBFF8E828F83A30D
:103A7300124B78851082851183AC82AD838E828F41
:103A830083A3A3A3A3A3A3A3124690126444120E79
:103A9300B8851082851183E0706A8E828F83A3A319
:103AA300A3A3A3A3A3A3E0C3940B405885088285D3
:103AB3000983A3A3A3A3A3A3A3A3E06402704590D4
:103AC3000483E064026042E06406603D900445E0E4
:103AD3007002A3E06005123D4E605E900483E064D3
:103AE300086005E06404701C7402120AACE0F97407
:103AF30007120AACAC82AD83850882850983126400
:103B030042120EBE74130224D4900445E07002A343
:103B1300E07026750A00780A12081F780A12081F37
:103B2300123D26127608123D57FCA3E0FD8508825C
:103B33008509831244071208499004CF1250D49088
:103B430004CFE0F50AA3E0F50B80378E828F83E084
:103B5300F8A3123D57687003A3E06970198E828F32
:103B630083A3A3E0FAE508240DF582E5091229955C
:103B73006A7003023BFA8E0A8F0BEE126AE0EF12B1
:103B830050D1EE7001EF70C37A187B001215368A9C
:103B93000C8B0DAE0CAF0DEE7001EF7003023B0703
:103BA3009004CFE07002A3E070059004CF800AE593
:103BB3000A126AE0E50B127608126EEB8E828F838F
:103BC300126042EE240C12760574FFF0E48E828FAD
:103BD30083A3A3A3A3A3124325A3A3A3A3123D6A71
:103BE300E4F0A3F0E508240B12760C123D1C1246F8
:103BF300A1C4123D1CA3F07401120AAC125F56F06B
:103C03007402120AAC1258E4A3A3F0E508240DF5DC
:103C130082E509123D38A31261F6A3A3123D4012B7
:103C230059187402120AACE0640160117407120A95
:103C3300ACAC82AD83EE240D123D2F80117C087D48
:103C43000079FFEE240DFAEF3400FB1214AC74126A
:103C5300120AACE0C0E0EE2415127605D0E0F09035
:103C63001BA9E0C0E0123D26122AB2D0E0C39A405D
:103C730003023B071275FBE509127608A3E05480A3
:103C8300F9E47001E970099012EDE07003023B075B
:103C93007404120AAC1258E4700EE0704D740612EC
:103CA3000AACE07006023B07E060147405120AAC2C
:103CB300E0C0E0EE240C122AAFD0E0C39A502B856B
:103CC3000882850983127641125916123D2612295C
:103CD30095C0E0127602D0E0F07405120AACE0C0A1
:103CE300E0EE240C127605D0E0F07406120AACE084
:103CF300600D74018E828F83A3A3A3A3A3A3F07487
:103D030004120AACE07003023B0774018E828F83B6
:103D1300A3A3A3A3A3F0023B07540F8E828F83A315
:103D2300A3A322E5082410F582E50922FAEF340063
:103D3300FB121CA422124C18124251A322123D441E
:103D430022E0F8A3E0F98E828F8322900445124388
:103D5300E1640122E0F9850882850983A3A3A3A373
:103D6300A3A3A3A3A3E022A3F0EE2416124C1522CF
:103D730074F412035674C91208DB900483E06408D8
:103D83007003023E319004C0E06402703490229BC1
:103D9300E493900465F090229BE493900463F09085
:103DA30087737808120A6D90048C7808120A5E9063
:103DB30087737808120A6D9004907808120A5E805F
:103DC3006D900494E0F824A4F582E43416F583E0BE
:103DD300F508900465F0E824A5F582E43416F5832C
:103DE300E0F509900463F0750AFF750BFFE50878A9
:103DF3000A1209DAE50AF4F8E50BF4F93395E0FA67
:103E030090048CE8FCE9FDEAFE123F62750AFF7537
:103E13000BFFE509C39508780A1209DAE50AF4FCF1
:103E2300E50BF4FD3395E0FE900490123F62E4123B
:103E33005D657904121CBC900494E07009741E1231
:103E43000AAC74018006741E120AACE4F0740F8588
:103E53001082851183F0901B351268697946121C14
:103E6300BC7401120AACE4F0901B92E0C0E074024F
:103E7300120AACD0E0F0900471E0C0E07403120ABF
:103E8300ACD0E0F07404120AACE4F07405120AAC8E
:103E9300E4F07407120AACE4F0900494E0C3940FC6
:103EA300500CE0C0E07406120AACD0E08007740640
:103EB300120AAC740FF07C957D047408120AACAA44
:103EC30082AB83121CA47C037D0079FF7410120A59
:103ED300ACAA82AB831214AC9004CDE0C0E074139F
:103EE300120AACD0E0125E87120AAC125E76120F91
:103EF300A2900488E0C0E0741C120AACD0E0F090F9
:103F03000489E0C0E0741D120AACD0E0F09004769E
:103F1300E0C0E0741A120AACD0E0F090048112679A
:103F2300097418120AAC1259187420120AACE4F07E
:103F330090048BE0C0E0741F120AACD0E0F074343C
:103F4300120AACE4F07429120AACE4123F6D741443
:103F5300120AACAA82AB83121CD47437024747EC13
:103F6300F0A3EDF0A3EEF0A3F022F07A747B0479D2
:103F730053123F7822121CBC7A777B04794B121CB4
:103F8300BC22C082C0838A828B83A3E06007E49053
:103F93000483F0804A7408900483F0900494E070E2
:103FA3001F90044FE07002A3E0600B790090044F70
:103FB300125C6B121E77900481124C0E7A05801AE4
:103FC3007900120CD2900474124C0E7A067B001204
:103FD3001C8C900477124C0E7A047B00121C8C020A
:103FE300579274F412035674EA1208DB8A088B0999
:103FF300124097EE7001EF70030240928E828F831E
:10400300A3A3A3A3E0640160278E828F83A3A3A34A
:10401300A3E06402601A8E828F83A3A3A3A3E06448
:1040230003600D8E828F83A3A3A3A3E06404705F58
:10403300E5082402FCE5091240AC127497120AAC9D
:10404300125918740A120AAC7401F07413120AACF0
:10405300126868121CC88908AC087D007A077B00C7
:10406300121C8C8E828F83A3A3A3A3A3E0C2E0F0D0
:1040730074018E828F83A3A3A3A3A3A3A3A3A3F0FB
:1040830074028E828F83A3A3A3A3A3A3A3A3F07419
:1040930016024747EA24020A0AEB3400FB120BA676
:1040A3008A0A8B0BAE0AAF0B223400FD8510828582
:1040B3001183AA82AB83121CA42274F712035690B5
:1040C30004CFE0FAA3E0800CEA24161250CE1215B6
:1040D3003CEEFAEFFBEA7001EB70ED9004CFE4F0F5
:1040E300A3F002689B74F41203568A088B09EA242E
:1040F30013F582EB1229956403700DEA240BFAEB96
:104103003400FB120BA6800BE0640270731269602B
:104113001276208A0A8B0BAE0AAF0BEE7001EF60AA
:104123005F850882850983A3E0700DE48E828F8307
:10413300A3A3A3A3A3A3804764F1600C850882858E
:104143000983A3E064E1701F8E828F83A3A3A3A3DB
:10415300A3A3E064017010126584121E77E508249E
:104163000BFAE5091236508E828F83A3A3A3A3A370
:10417300A3E0600C8E828F83A3A3A3A3A3A314F055
:1041830002474A74F21203568A0C8B0DECFEEDFFC4
:10419300890B8A828B83126AE58A828B8312424B54
:1041A300EEF8EFF9A30EAF838A828B83A3A3E0C457
:1041B30054F0FA88828983E04A12425A1242511219
:1041C3004255E0333354FCFA8E828F83E04A124225
:1041D30055A3E033333354F8FA8E828F83E04AF0E9
:1041E30008EFF9A30EAF83850C828B83A3A3A3A34C
:1041F300A3A3E0A2E0E492E013135480FA88828937
:1042030083E04AF0E50C2407F508EB125622120866
:10421300177C08125320120849126C5DE50C240F19
:10422300F508E50D3400F50978081208177C031228
:104233005320120849E50BC3940F400912431C1283
:104243003D38A3A3F00224D7A3124251F022E00287
:104253003D4912425AA322F0850C828B83A3A3A368
:104263002274F2120356EAFEEBFF890B8C0C8D0DC0
:104273008E828F83E08C828D83124325AE82AF833F
:10428300E012574212433DC4125742124330E054E6
:10429300038C828D8312433BA2E2E492E08C828DF5
:1042A3008312433A131313541F125742124339A272
:1042B300E7E492E08C828D83A3A3A3A31243308E01
:1042C300088F09750A0078081208177C087D00E535
:1042D3000C2407126C3D120849126C5D8E088F097D
:1042E30078081208177C037D00E50C240F126C3D3F
:1042F300120849E50BC3940F40148E828F83A3A346
:10430300A3E0C0E012431C127608D0E080071243FA
:104313001C127608E4F00224D7E50C2412F582E59A
:104323000D2212432922F08E828F83A322A3A3128C
:1043330043290EAF8322A3A3A3A3A3F08E828F836B
:10434300E02274F412035674F91208DBEAFEEBFF61
:10435300900445E07002A3E060101243DA64027037
:1043630009EEFAEFFB1210628068900481E06E7030
:1043730003A3E06F705C74016960097A957B041292
:104383006863704E7A007B029004CEE0F91215E464
:10439300EA7001EB703C9004847808120A6D851072
:1043A300828511837808120A5E90048AE0C0E07463
:1043B30004120AACD0E0F07405120AAC7401F07474
:1043C30006120AAC7402126869120C84E960921234
:1043D3000C8A74070247479004451243E1221250A6
:1043E300E4A3A3E022E508240CF582E509122ABE22
:1043F3008A828B83A3A3A3A3A3A3A3A3A31233663A
:104403008A828B831258CE120F84740222E0F9023F
:10441300579274F61203569004E0E0701F7C007903
:10442300017A007B00120EF4EA7001EB600E8A82BF
:104433008B83E07002A3E06003120E4C025C16C093
:1044430082C0831248B2401079FF120EEEE9FA904F
:1044530022A9E493C39A5004790180027900025798
:104463009274F11203568A0A8B0B890E7509008A1E
:10447300828B83A3A3A3A3A3A3A3A3E0F9120EFA9E
:104483008A0C8B0DAE0CAF0D750801EE7001EF6059
:104493000302453A850A82850B83A3A3A3A3A3A39F
:1044A300124C0E850A82850B83A3A3A3A3A3A3A304
:1044B300A3E0F9850A82850B8312644B120EE28A0C
:1044C3000C8B0DAE0CAF0DEE7001EF70030246774F
:1044D3008E828F83A3A3A3A3E4F0A3F0E50A240BA6
:1044E300FAE50B126029E0C0E0127602D0E0F01288
:1044F3001002EE240C125BAF750901EE2406F8EFEF
:1045030012760F547FF0A3E054FC1246A1540460CA
:10451300030245BE901B8BE0F50A750B0074077808
:104523000A1209DA8E828F83A3A3A3A3A3A3E04570
:104533000AF0A3E0450BF08E828F83A3A3A3A3A36A
:10454300A3E05480F50AA3E05403F50B7407780A3B
:10455300120A4FE50E607774028E828F83A3A3A3A2
:10456300A3124339240D12469DA2E2500990046F11
:1045730012468E125916E50A7003024645EE2406CA
:10458300F8EF3400F9E8FAE9FB8A828B83E0547F81
:10459300FCA3E054FCFD74FF250AF50A74FF340004
:1045A300F50B7407780A1209DAE50A4CF8E50B4DA6
:1045B300F98A828B831259180246458E828F83A310
:1045C300A3A3A3A3A3E04480F0A3E0024539E50A33
:1045D3007005750800806B8E828F83A3A3A3A3A3AA
:1045E300A3E0542060171214BE8A0A747F550AF898
:1045F300745F288E828F83A3A3A3A380278E828FC9
:1046030083A3A3A3A3A3A3E05410600E1214BE8A32
:104613000A740F550AF8740180D88E828F83A3A37E
:10462300A3A37401F0A3E4F074048E828F83A3A385
:10463300A3A3A3A3A3A3A31248C17001EB70031206
:10464300468174016509702F8E828F83A3A3A3A370
:104653001268FCF9EEFAEFFB120EE8E96019EE249A
:104663000C1229927002A3E060031272D8EEFAEFE3
:10467300FB12153C750800A9087F070205AD7A20D7
:104683007B009004CEE0F91214FA22E0F8A3E0F9DB
:104693008E828F83A3A322E0242F126D49221260FE
:1046A300FBE02274F412035675080012474F7001A1
:1046B300EF70030247428E828F83A3A3A3A3A3A316
:1046C300A3A3A3E064067077120F188E828F83A3CF
:1046D300A3A3A3A3A3A3E05408F9E47001E9605CD6
:1046E3008E828F83124B6E7A007B00120EDCEA708F
:1046F30001EB7048124755121CEC7C007D007A00D8
:104703007B0080228E828F83124B687004A3E06447
:10471300FF6029124755121A10E9641A601E7C00C3
:104723007D00EEFAEFFB120EDC8A088B09AE08AFB0
:1047330009EE7001EF70CD7900121CF275080102C9
:104743002AAA74151208497F040205AD120EFA0253
:1047530037F8126C668E828F831258CE2274F7124A
:1047630003568A828B83E5827002E5837009900485
:10477300E180068A828B83A3A31249547001EB6004
:104783002C8A828B83A3A3A3A3A3A3A3E05408F936
:10479300E47001E960DDEC7001ED60158A828B83C2
:1047A3001226E16C7003A3E06D70C880047A007B6D
:1047B3000002689B74F21203568A088B09890AEC7B
:1047C300FEEDFF7A0E7B00121536EA7001EB603EB8
:1047D300E48A828B83A3A3A3A3A3A3A3A312481452
:1047E300E50A12566DA3A3126EE78A828B83A3A3F5
:1047F300A3A3E4F012481412566B127C58EA240C5B
:10480300F582EB124E8012566CA3A3F0A3F00224A0
:10481300D71273E002573674F5120356EAFEEBFF24
:10482300890A8C088D09EE7001EF605A7401650ADC
:1048330070147901120EEEE9FA9022AFE493C39A51
:10484300500F791180647404650A70341248B240C1
:10485300F18E828F83A3A3A3A3A3A3A3A3A3E50A98
:10486300124325A3127C568E828F83A3A3E4F0A365
:10487300F09004E1E07002A3E09004E1601B800A81
:104883007402650A60CB79C180201269D77002A3D4
:10489300E088828983A3A370F1EEF0A3EF1248C1ED
:1048A3007001EB700312468179007F030205AD7935
:1048B30004120EEEE9FA9022ADE493C39A22F07A41
:1048C300207B009004CEE0F91215E4EA22C082C0F6
:1048D30083E9FC79009004E1801D8A828B83A3A382
:1048E300A3A3A3A3A3A3A3E06C600574FF6C70014F
:1048F300098A828B83A3A31249547001EB70DB02F4
:10490300579274F71203568A828B83E5827002E50D
:104913008370099004E180068A828B83A3A31249E2
:10492300547001EB60248A828B83A3A3A3A3A3A364
:10493300A3A3A3E06970E1EC60148A828B83E02473
:104943000D126B91A2E240D080047A007B000268D2
:104953009B1258CEEA22C082C0839004E180068A6B
:10496300828B83A3A31249547001EB60128A828B5A
:1049730083A3A3A3A3A3A3A3A3E06970E280047A00
:10498300007B00025792C082C0839004E1800688B6
:10499300828983A3A31249C27001E9601B888289BB
:1049A30083E0FCA3E0F5838C82E06A7003A3E06BF1
:1049B30070DDE8FAE9FB80047A007B00025792126B
:1049C300670DE82274F11203568A0A8B0B8C0C8D47
:1049D3000D750800750900EA7001EB602E9004E183
:1049E30080068E828F83A3A31250D4EE7001EF60F2
:1049F3001AAC0CAD0DEEFAEFFB850A82850B831220
:104A03001E77E9640170DB8E088F09AA08AB0902DF
:104A1300467C790002053374F71203569004E112C1
:104A230067097C007D00800DE8FCE9FD88828983AD
:104A3300A3A3126709E87001E96030EA687002EB2A
:104A43006970E59004E112644BE86A7002E96B88CF
:104A5300828983A3A370081267099004E180091275
:104A630067098C828D83A3A312591802689B74F77C
:104A7300120356EAFEEBFFEE7001EF6016120F12FF
:104A8300124B827002A3E060031272D8EEFAEFFBBE
:104A930012153C02689B74F71203568A828B8312A9
:104AA3004B6E9004E11267097508007E008033881D
:104AB300828983A3A3A3A3A3A3A3A3A3E0640570F1
:104AC300180E88828983E0FFA3E0F5838F82E06C70
:104AD3007003A3E06D7002050888828983A3A31283
:104AE3006709E87001E970C79022A1E493FCE50827
:104AF300C39C500B9022A2E493FCEEC39C400F8A0C
:104B0300828B83A3A3A3A37401F0A3E48012900474
:104B13006F1267098A828B83A3A3A3A3E8F0A3E997
:104B2300F074058A828B83A3A3A3A3A3A3A3127305
:104B3300DBA3A3A3E0F0A3E0440812566D124B6875
:104B43007004A3E064FF6015900481124C0E8A8206
:104B53008B8312644B121CE6E9641A700579011207
:104B63001CF202689B1226E564FF221226E502333B
:104B7300678E828F83A3A3E0F508A3E0F5092212D1
:104B83006D421272EF8E828F831272EE1272DFE029
:104B93002274F712035674E11208DBEA2413F58238
:104BA300EB122995C0E07411120AACD0E0124F4FFA
:104BB3007409120AAC124F48124C02FCE9FD8C82B4
:104BC3008D83126709740B120AAC124F482414F533
:104BD30082EB122995C0E07412120AACD0E0F0EA1D
:104BE300240EF582EB122ABA8C828D83124C0E8529
:104BF3001082851183AA82AB83120DF80268962472
:104C030004F8EB3400F9E822124C1512336622EE55
:104C1300240FF582EF1272E92274F212035674FC28
:104C23001208DBEAFEEBFF750B00750A007508FE40
:104C33007509FF120ECAE960057911024E75EE245B
:104C4300151229926049901BA4E0C43354E0C0E0DC
:104C5300E0333354FCFAD0E04AC0E0EE2415127678
:104C630005D0E012671AFAA3E0FB79FF121DB8EA38
:104C73007001EB6017750B017508FF12298F44044F
:104C83001261F1EE2415122992D2E0F0750A408EDA
:104C9300828F831263106003124E7AEE241312295B
:104CA300927003741EF0EE2411122992640170199C
:104CB3009013BBE0600D90046BE0700D8E828F83C8
:104CC300E07006EE2411124E7DEE24141229927028
:104CD30015900460E0C0E0EE2414127605D0E0F0F5
:104CE300900460E004F090046EE0A2E15044E50B10
:104CF30070188E828F8312631060378E828F83E0E9
:104D03006008EE240B124E86602812298F544060EF
:104D130014EE24131229926401700A12298F54FB92
:104D23001261F1800DEEFAEFFB120F24E97003021A
:104D33004C3C8E828F83E064017012EE240B1226AA
:104D4300DE6402700812298F44401261F112298F28
:104D530054406003024DE7E50B6003024DE7900406
:104D63006EE0A2E1507EE50AF50B780B12081FEE08
:104D73002406FCEF3400FD8E828F83126449EE24F7
:104D830012122AB7120E227401120849E9600612A0
:104D93004E7A1261EB8E828F83A3A3A3A3A3A3E016
:104DA300601F8E828F83A3A312763C2407FAEF340D
:104DB30000FB120F488A088B0912298F44401261A5
:104DC300F18E828F83E064016008A90A124E921269
:104DD3000DBCA90A8E828F83124E92120D56E96082
:104DE300031261EB851082851183AC82AD83EEFAE9
:104DF300EFFB120F3C8A0A8B0B74FE650870047478
:104E0300FF65097003124B74EA7001EB60608E82D8
:104E13008F83E0C0E07401120AACD0E0F074021298
:104E23000AAC126EEB7401120AAC85820C85830DF9
:104E3300780C12081BEE240F12760512069DEE2441
:104E43000E122992F50C780C12081F7405120AAC85
:104E5300E0F9AC08AD09120F367405120849E9FEF2
:104E630074106E700BAA0AAB0B12153C80027E10F5
:104E7300EEF974040224D4EE2412F582EF124C18D6
:104E8300E4F022124C151226E5F9120FD8E922A3F9
:104E9300A3A3A31269021258CE22C082C08374DE78
:104EA3001208DB8A828B83A3A3A3A3126709740E60
:104EB300120AACE8F0A3E9124F4F740C120AAC12B9
:104EC3004F48240DF582EB122995C0E0741A120A9B
:104ED300ACD0E0F01269601267067420120AAC12BB
:104EE3004F482415F582EB122995C0E07408120A85
:104EF300ACD0E0F0EA241CF582EB126706741212C0
:104F03000AAC12591874FF851082851183F074015D
:104F1300120AAC74FFF07402120AAC74FFF09087AB
:104F23007F1206997404120AACAC82AD8374071223
:104F33000AACAA82AB83120CC0740412084979002C
:104F4300742202578FE8F0A3E9F0EA22F08A828BF9
:104F530083A3A312670D2274F012035674EE120892
:104F6300DB7410120AAC125BB68C0E8D0F890D74B4
:104F730022120AACE0F50C7423120AAC1250D47559
:104F830008107A1E7B001215367402120AAC125BEB
:104F9300B67402120AACE07002A3E070030250A9D7
:104FA300750900AA0EAB0F125B9A7001E9602388A2
:104FB300828983A3A3A3A3E06401600D888289830C
:104FC300A3A3A3A3E064037009EE54407004740424
:104FD3004FFF74045FF9E47001E96003750901850B
:104FE3001082851183AA82AB8379501259A1120AC8
:104FF300AC1250DAA3125BB67402120AACE0240BB3
:105003001250BC7402F0120AAC1250DA7402F0129D
:105013000AAC125C6BE50EF0A3E50FF07402120A02
:10502300ACE0241B1250BCE50DF07402120AACE094
:10503300240C1250BCE50CF07410120AAC1259AADD
:10504300120AACE0241C1250BC125BB67408120A9C
:10505300AC126EEB740A120AACE50CF07425120A5A
:10506300AC125C6BC082C083740D120AACAC82AD0F
:1050730083D083D0827403120795A9097402120A9C
:10508300ACAA82AB83120ED0E964017011E509600A
:1050930008A90C120EFA120F1E750800800874027C
:1050A300120AAC1272DBA90874128002740212088D
:1050B300497F080205ADE0240DF8A3E01250C32296
:1050C3003400F98882898322EA240BF582EB124C9F
:1050D30018E0FEA3E0FF221250E00257371250E41B
:1050E30022E0F8A3E0F583888202573774F01203B5
:1050F30056EAFEEBFF8C088D0974088E828F8312AB
:105103003D6AE0600874108E828F83A3F0EE24174B
:1051130012299260098E828F83A3E02408F0EE2483
:105123001512299260088E828F83A3E004F08E8289
:105133008F83A3A3A3A3A3A3E060198E828F83A36A
:10514300A3A3A3A3A3A3E0C3332402FA8E828F8372
:10515300A3E02AF0EE24111229926005750B0E804C
:1051630003750B008E828F83A3E0C0E0EE240D1243
:105173007605D0E0FAE02A250B8C828D83F0EE24AD
:105183001112299260051259452AF0850882850972
:1051930083E0C394754003025313E0FA7B001215B6
:1051A300368A0E8B0FEA7001EB7003025319EEFA85
:1051B300EFFB120F42EA850E82850F83125BB7EE77
:1051C3002402F812532C12534BF0EE240408081255
:1051D300532CA3A312534BA3A3F0EE241312533760
:1051E300F0EE2414125337A3F0750C08EE241612B4
:1051F30029926013EE2418124C0BE50E2408FAE5ED
:105203000F123D31750C10EE24171229926019EE1E
:10521300241A124C0B850C08E50E2508FAE50F122B
:105223003D317408250CF50C8E828F83A3A3A3A3B1
:10523300A3A3E060718E828F83A3A3A3A3A3A3A3DD
:10524300E0C0E0850C08E50E2508F582E50F12762F
:1052530008D0E0125341E0C0E0850C08E50E2508B4
:10526300F582E50F127608D0E0125341126C461214
:1052730008178E828F83A3A3A3A3A3A3A3E0C3339F
:10528300FCE433FD850C08E50E2508FAE50F126CE6
:10529300401208498E828F83A3A3A3A3A3A3A3E0F1
:1052A300C333250CF50CEE24151229926010C0E0CF
:1052B300E50E250CF582E50F127608D0E0F01276A4
:1052C30002126C47120817EE240D122992FC7D007E
:1052D300850B088E828F83A3125641E50828FAE4D2
:1052E30039125325120849EE24111229926027EE30
:1052F300240D122992FD8E828F83A3E0FCAA0EABAC
:105303000F7900120ADAE9600DAA0EAB0F12153CF1
:10531300750E00750F00AA0EAB0F0250B47D00EEA0
:10532300FAEFFB1214A0740322EF127613850E8298
:10533300850F8322124C15125352A3A3A322F00507
:105343000C8E828F8302573312535D12535222E025
:10535300850E82850F83A3A3A322A3A31260FBA3BD
:105363002274F6120356EA2415F582EB122995608E
:10537300047C0180027C008A828B83E0FE900471AE
:10538300125405740278081209DAE5084EFEAF09D3
:10539300EA24121253FF740678081209DAE5084E5C
:1053A300F8E5094FF9ECFDE8FCED49FDEA2411129B
:1053B30053FF740978081209DAE5094DFDEA24164A
:1053C3001253FF740B78081209DAE5094DFDEA243C
:1053D300171253FF740C78081209DAE5094DFD8A98
:1053E300828B83A3A3A3A3A3A3125405740A7808EF
:1053F3001209DAECFAE5094DFB025C16F582EB12B1
:105403004C18E0F5087509002274F612035674FD72
:105413001208DBEAFEEBFFECFAEDFB7401120AACB7
:10542300858208858309780812081B7402120AAC66
:10543300AC82AD83120D98740212084985108285DF
:10544300118312424C7401120AAC12468EE8F0A387
:10545300E912569C148E828F83A312569CC333F891
:10546300E433F97401120AACE028F8A3E039F974C3
:10547300FE28F58274FF39F58312644B7403025CD2
:105483001374F012035674FE1208DB8A0E8B0FECB2
:10549300FEEDFFE98E828F8312566D1258C4850E7E
:1054A30082850F83A3A312563C125901125673121D
:1054B300563C1258F0125673A3A3E0C0E0EE241139
:1054C300127605D0E012567AA3A3A3E0C0E0EE243F
:1054D30012127605D0E0125957600AE50E2408F837
:1054E300E50F12591E8E828F83A3A3A3A3A3A3A3A5
:1054F300A3E060218E828F83A385820C85830D12A6
:105503005641EE2415127605125918850C82850D25
:1055130083E02408F08E828F83A3A3A3A3A3E06078
:105523000F12564D8E828F83A3A3A3A3A312568477
:10553300EE2418122992607C12564DC0E0EE241915
:10554300127605D0E0125684F8E50E28F582E50FB1
:10555300122995C0E0EE241A127605D0E012568483
:10556300125615E433FB12568F7002A3E060458E8A
:10557300828F83A3E0F8E50E28F508E50F12562283
:10558300120817EE2419122992C333FCE433FD7475
:1055930003120AAC12644B12532612084912561511
:1055A300850C82850D83E02A126765EE241B127633
:1055B300051259188E828F83A3E0FA8A08E50E2517
:1055C30008F8E50F340012562C12433EC39AC0E08C
:1055D300EE2417127605D0E0127CE4E06031EE246D
:1055E30017F508EF3400F509850882F583E024F206
:1055F300F0EE241DF8EF12760F240EFAA3E0340028
:10560300FB88828983EAF0A3EB125940C39AF00224
:1056130050AFEE2419F582EF125665C333FA2234E4
:1056230000F509750A00780822F9EE241D12563494
:10563300221272E6E8F0A3E922E0FA025330E0F81E
:10564300E50E28F8E50F3400F9228E828F83A385B7
:10565300820C85830DE0F8E50E28F582E50F1256DE
:1056630065221272E9E022A3A3A3F08A828B83222C
:10567300F0A3E912567A22F0850E82850F83025732
:1056830037F0850C82850D83E004F02212153685F0
:105693001082851183EAF0A3EB1256A0221256A5BD
:1056A300E022F08510828511832274F41203568A56
:1056B300088B09EA125749F0EA1313543F12574271
:1056C300A3A3A3F0EAC41313125749A3A3F0EB1245
:1056D3005727F08A0A8B0B7409780A120A4FE50AD6
:1056E300125727A3F08A0A8B0B740A780A120A4FFF
:1056F300E50A5401C0E0EC2418F582ED127608D0D7
:10570300E0F08A0A8B0B740B780A120A4FE50A122F
:10571300573CF0740C7808120A4FE50812573CA363
:10572300F002474A12572B2254018C828D83800347
:10573300A3A3A3A3A3A3A3A32212572BA3A32254DC
:105743000F8C828D832254038C828D83A3A322C06A
:1057530082C08379008A828B83A3A3A3A3A3A3E03C
:1057630090046B600FE070228A828B83A3A3E070A6
:1057730019098016E060138A828B831264429004B5
:1057830074E06A7003A3E06B70E78003120849D0EA
:1057930083D08202053374F31203568A0A8B0B8972
:1057A3000CECFEEDFF8A828B831258C4850A828536
:1057B3000B83A3A31258BB12590112592F1258BBC2
:1057C3001258F012592FA3A3E0C0E0EE2411127671
:1057D30005D0E0125936A3A3A3E0C0E0EE241212D1
:1057E3007605D0E0125957600AE50A2408F8E50B5C
:1057F30012591E8E828F83A3A3A3A3A3A3A3A3E003
:10580300601B8E828F83A31258D2EE241512760565
:10581300125918850882850983E02408F08E828F47
:1058230083A3A3A3A3A3E060248E828F83A3858293
:1058330008858309E0F8E50A28F582E50B12760866
:105843001258E4F0850882850983E004F0EEFAEF4C
:10585300FB120F5AE9705E8E828F83A3A3A3A3A3C7
:10586300A3123D3B7025E0FC8C08E50A2508FAE508
:105873000B3400FBEE241D125BAFE50CC39CC0E0B0
:10588300EE2417127605D0E0F0802A1258D2740E57
:1058930028F8E43912562C125940FCE50CC39C2419
:1058A300F2C39AFDEE2417127605EDF0AA0AAB0BAC
:1058B3007901120ADA0266FCE0FA850A82850B8313
:1058C300221258CE120F54221272E9E00229B18536
:1058D3008208858309E0F8E50A28F8E50B3400F926
:1058E300221258E822E08E828F83025736A3A3A3A5
:1058F300A3A3E0F9EAF8EE240B124C15E822A3A3C4
:10590300A3E0F9EA8E828F83A302573312670D8EC9
:10591300828F83A3A3E8F0A3E9F0223400F9EE24F5
:1059230013125634124329E02408F022F0A3E9129B
:10593300593622F0850A82850B83025737F01259B4
:10594300452290046CE0F9120AE0E9FA85088285A1
:105953000983E022F074088E828F83A3127CE8A36C
:10596300E022C082C0837AE67B0479E2121CB67A15
:10597300E67B04025792C082C08390047412644B86
:10598300025792C082C08374FE1208DB85108285A1
:105993001183AA82AB83794B1259A102578F121C30
:1059A300B68510828511831258CE740222C082C03C
:1059B30083794A121CB602579274F6120356900466
:1059C300EEE0FE04F0EEF9120EFAEA7001EB70EE6F
:1059D300EE60EBF9025C1674F012035674FE1208C3
:1059E300DB851082851183ECF0A3EDF08A0C8B0D1F
:1059F30089087413120AACE0F50F750900750E00DF
:105A0300851082851183E0FC1210DA8A0A8B0BAEB3
:105A13000AAF0BEE7001EF7018E50F6003025B48ED
:105A2300A908851082851183125BA71210FE025B01
:105A330097E5086020EE2402122992F885080AE50A
:105A43000A28F8E4340013E813F0700974018E8215
:105A53008F83A3A3F0E50F7003025B319004FBE097
:105A63007002A3E060099004FB125C6B121E777452
:105A730012120AACE070588E828F83E07003025BCF
:105A83009714F064026003025B97750E0190046E35
:105A9300E0A2E14003025B63AA0CAB0D125B9A70B8
:105AA30001E97003025B63E50E600D88828983A3BD
:105AB300A3A3A3A3E0C2E0F0E5097003025B978808
:105AC300828983A3A3A3A3A3E0D2E0F0025B679040
:105AD300046EE0A2E150439004FDE07002A3E06095
:105AE3000DEEFAEFFB9004FD125C6B121E778E82B3
:105AF3008F83E0C394045003E004F0E06403700A6E
:105B0300750901AA0CAB0D120E34E48E828F83A3A8
:105B1300F0E5096003025A90807A9004FFE004F0F4
