:020000040000FA
:06000000020A2C0201B00F
:03002B000209EBDC
:0300330002068240
:030043000208AE02
:03004B0002074C5D
:03005300020103A4
:03005B0002075B3E
:030063000207672A
:03006B0002066822
:1000830002014C0101FF0503010F030003000300FC
:1000930003000300030003000300030005000A003C
:1000A300140028004F009E00000049104910491019
:1000B30049100B0F050F4910161C00000000781C97
:1000C300000000000C0000000C0001B905FF010056
:1000D30001010100D50E0000004A0FE8036400642B
:1000E30000B8010202000000020502071E02051EFD
:1000F30003B80B020103320002F1FF0202020605FC
:10010300C0E074F21203C2E5A7F8E5A1F958541050
:1001130060081216CD53A1EF802AE8A2E0C0D0E90F
:10012300A2E092F01209C7158182F05017906198EE
:10013300E0F890125DE0C398A2D265D0335002E894
:10014300F053A1FE7F01020421C0E074F21203C246
:100153009061A4E0F8759B00E59158540860087518
:1001630091F712170F802AE5915854106008759182
:10017300EF121715801BE8A2E0C0D0E591A2E09230
:10018300F01209C7158182F05007E0C2E0F012189F
:10019300359061A3E0F8E5E9585404600E12180B9A
:1001A30075E9FB906193E0A2E640F28097C0E074AA
:1001B300F21203C29061A5E0F8E5BF58540460064B
:1001C30053BFFB12184D020147C3E498F8E499F9B1
:1001D30012020D8026C3E49AFAE49BFBE920E7E9C7
:1001E30012020DE498F8E499F922C3E498F8E4992B
:1001F300F912020DE498F8E499F9C3E49AFAE49B3E
:10020300FB22EB20E7CFE920E7E0B90010BB0008B1
:10021300E88AF084F8AAF022E4FBC8FA22EB702201
:100223007B10C833C8C933C9335007C39AC3DBF241
:1002330080069A50012ADBEAC833F4C8C933F4C9EB
:10024300FA2275F008E4C833C8C933C933C99AC957
:100253009B5004C92AC93BD5F0ECFBC833F4C8E46E
:10026300C9FA22080808EAC0E0EBC0E086F0E7A478
:10027300FA180986F0E7A42AFA180986F0E7A42AEF
:10028300FA180986F0E7A42AFA1986F0E7A4FBE531
:10029300F02AFA190886F0E7A42BFBE5F03AFA19DD
:1002A3000886F0E7A42BFBE5F03AFA18180986F064
:1002B300E7A4C5F02BFBE43AFA1908E7C5F0C6A496
:1002C30026F6E5F03BFBE43AFA1886F0E7A4F6E5F8
:1002D300F00826F6E43B08F6E43A08F6D0E0FBD053
:1002E300E0FA22E4CFC0E0E4CEC0E0E4CDC0E0E435
:1002F300CCC0E075F020C3E633F608E633F608E633
:1003030033F608E633F6181818EC33FCED33FDEE3C
:1003130033FEEF33FFC3EC9709ED9709EE9709EF2F
:1003230097191919400FFFEC97FC09ED97FD09EE9A
:1003330097FE191906D5F0BEECF709EDF709EEF7AC
:1003430009EFF7191919D0E0FCD0E0FDD0E0FED099
:10035300E0FF222510C582C0E0E51134FFC583C04C
:10036300E0E510C3958224F810AF088583118582D8
:10037300108008858311858210D2AFCEF0A3E520CB
:10038300F0A37808E608F0A3DEFAEFF0A3E58124F2
:10039300FAF8E608F0A3E608F0A3E608F0A30808D5
:1003A300E608F0A3E608F0A315811581D0E0FED09E
:1003B300E0F8158115811581E8C0E0EEC0E022C0A8
:1003C300D02510C582C0E0E51134FFC583C0E0E548
:1003D30010C3958224F310AF0885831185821080A2
:1003E30008858311858210D2AFC8F0A3E9F0A3EA90
:1003F300F0A3EBF0A37908E709F0A3D8FAECF0A394
:10040300EDF0A3EEF0A3EFF0A3D0E0F0A3D0E0F083
:10041300A3D0E0F0A3E520F0A3E5F0F0A32285113B
:1004230083851082E0C0E0A3E0F9A3E0FAA3E0FB38
:10043300A37808E0F608A3DFFAE0FCA3E0FDA3E05D
:10044300FEA3E0FFA3E0C0E0A3E0C0E0A3E0F5D09B
:10045300A3E0F520A3E0A3F5F010AF088583118591
:1004630082108008858311858210D2AFD082D08319
:10047300D0E0F8D0E032120A8EB900030204BBE4E4
:1004830090040078B379118002F0A3D8FCD9FA90D4
:1004930014B2AA82AB83900086787E79018015E43A
:1004A30093A3AC82AD838A828B83F0A3AA82AB83AE
:1004B3008C828D83D8E9D9E775820D7583DE74024A
:1004C30012051D7582C375831A740012051DD0832E
:1004D300D082ECC0E0EDC0E0E493A3FCE493A3FD81
:1004E300ED4C600D1205F3EC24FFFCED34FFFD80B1
:1004F300EFE493A3FCE493A3FDED4C600D1206F728
:10050300EC24FFFCED34FFFD80EFD0E0FDD0E0FCF8
:10051300E493A3C0E0E493C0E022C0F0F5F0E59FCC
:100523005407C0E0E59F54F845F0D0F0F59FE4731D
:10053300859FF053F0F8D0E045F0F59F22D083D0AB
:1005430082E59F5407C0E0E493C0E0740193C0E0E8
:100553007402935407C0F0F5F0E59F54F845F0D0CA
:10056300F0F59F22851183851082E0A3FEE0A3F5B9
:10057300207808E0A3F608DFFAE0A3FFE0A3C0E0D9
:10058300E0A3C0E0E0A3C0E0E0A3C0E0E0A3C0E0DC
:1005930010AF0885821085831180088582108583BA
:1005A30011D2AFD083D082020533D083D082E9C089
:1005B300E0E493A3C386F0C5F095F0F908E493A3B0
:1005C30086F0C5F095F0700BE493A3C3994005E959
:1005D300048002A3E475F002A42582F582E5F035D8
:1005E30083F583D0E0F9E493A3C0E0E493C0E02271
:1005F300C0E0C3E49396087401939618400FE49304
:1006030066700808740193661870007019A3A3C379
:10061300E49396087401939618A3A3400DD0E0D0F9
:10062300E0D0E002050DA3A3A3A3A3A3D0E022D0AF
:1006330083D082C5F0E493A3C5F0C395F0F5F0E44D
:1006430093A3C395F04005E5F0048001E475F0023F
:10065300A42582F582E5F03583F583E493A3C0E016
:10066300E493C0E022C0E074F21203C2E589A2E180
:10067300500312158F758900C2C57F01020421C082
:10068300E074F21203C2E58BA2E0500312158F75DA
:100693008B00C2E880E47404800474028000CCC040
:1006A300E0EDC0E0E510C39CCCAD1150011D10AFCF
:1006B300068C108D1180068C108D11D2AF12079508
:1006C300D0E0FDD0E0FC2274028000CCC0E0EDC09D
:1006D300E0E510C39CCCAD1150011D10AF068C108A
:1006E3008D1180068C108D11D2AF120773D0E0FDEF
:1006F300D0E0FC22C0E0C0F088F0E4936670080804
:1007030074019366187000A8F0A3A3700BD0F0D007
:10071300E0D0E0D0E002050DA3A3D0F0D0E022D0DA
:1007230083D082CCC0E0E493A360061207B61470B2
:10073300FAE493A360061208C51470FAD0E0FCE44F
:1007430093A3C0E0E493C0E022C0E074F21203C2BA
:100753001216137F01020421C0E074F21203C212C5
:10076300161980EFC0E074F21203C212161F80E361
:10077300CAC0E0E493A3C582CCC582C583CDC5833B
:10078300F0A3C582CCC582C583CDC583DAE5D0E0AD
:10079300CA22CAC0E0E0A3C582CCC582C583CDC549
:1007A30083F0A3C582CCC582C583CDC583DAE6D0E9
:1007B300E0CA22C0E0E493A3D39C5010E493A3C304
:1007C3009C400AD0E0D0E0D0E002073FA3A3A3D02F
:1007D300E0227009080808226016181818C6C333E7
:1007E300C608C633C608C633C608C633C6D5E0EA4C
:1007F30022C008C3E096F50808A3E096420808A3C0
:10080300E096420808A3E09645087001D3D0082279
:100813007404800A74038006740280027401C0E0C9
:10082300F40412082ED0E0120A69222510F5821072
:10083300AF08F510400215118008F510400215119C
:10084300D2AF85118322C0D0251010AF08F5105008
:100853000205118008F51050020511D2AFD0D02245
:10086300BB0102E722C082C08389828A83BB000363
:10087300E08002E493D083D082226016080808C681
:10088300C313C618C613C618C613C618C613C6D5CF
:10089300E0EA22C3E0C696F608A3E0C696F608A3EC
:1008A300E0C696F608A3E0C696F622C0E074F212FC
:1008B30003C2C2C0E5D1A2E450031216497F01026C
:1008C3000421C0E0E493A36C7009D0E0D0E0D0E051
:1008D30002073FA3A3D0E022251010AF08F5104074
:1008E3000215118008F51040021511D2AF22C3E0A2
:1008F3009608A3E09608A3E09608A3E096A2D26523
:10090300D03322E066701008A3E066700A08A3E003
:1009130066700408A3E06622C3E096F008A3E0969D
:10092300F008A3E096F008A3E096F022E026F6088C
:10093300A3E036F608A3E036F608A3E036F622E68F
:1009430027F60809E637F60809E637F60809E63711
:10095300F622E056F608A3E056F608A3E056F6089A
:10096300A3E056F622E056F008A3E056F008A3E011
:1009730056F008A3E056F022E657F60809E657F6C4
:100983000809E657F60809E657F622E026F008A319
:10099300E036F008A3E036F008A3E036F022E6479D
:1009A300F60809E647F60809E647F60809E647F6B2
:1009B30022700422600D18C6C333C608C633C6D5D9
:1009C300E0F41822C0E0E8C0E0E58124FCF8E6A2E8
:1009D300E7D0E0F8D0E022E4C396F608E496F60800
:1009E300E496F608E496F622C0E074F21203C2C25B
:1009F300C71217517F01020421C6F4C608C6F4C604
:100A030008C6F4C608C6F4C622C3E7960809E796E3
:100A13000809E7960809E79622C3E09608A3E0963B
:100A230008A3E09608A3E0962275D000758140756F
:100A3300100075110400020479600C08C6C313C6C4
:100A430018C613C6D5E0F422E6F008A3E6F008A31F
:100A5300E6F008A3E6F022E0F608A3E0F608A3E038
:100A6300F608A3E0F622CAC0E0E6F0A308DAFAD05B
:100A7300E0FA22E0FAA3E0FBA3E0FCA3E0FD22EA14
:100A8300F0A3EBF0A3ECF0A3EDF022E5C754F84498
:100A930001F5C77901222510F582E43511F583228A
:100AA3001205400CB30112054049B401120540E49C
:100AB300B401120540E4B50112054002B601120566
:100AC30040D95B00120540EB5B00120540195C0046
:100AD3001205407B5C00120540005D001205409E3C
:100AE3005D00120540215E001205403C5E001205C8
:100AF30040635E001205409E5E00120540DE5E000C
:100B03001205402E5F00120540E85F001205406D9C
:100B13006000120540F46000120540DC610012051C
:100B230040356200120540AD6200120540BF62000D
:100B3300120540C96200120540A663001205400574
:100B43006400120540076500120540806500120528
:100B530040D46500120540496600120540F5670060
:100B63001205400968001205406B6800120540F049
:100B730068001205403D6900120540656A001205D0
:100B830040506B00120540BD6B00120540396C00EC
:100B93001205409B6C00120540D36C00120540AE59
:100BA3006D00120540AE6E001205400B6F0012057A
:100BB30040546F001205407C6F0012054005700021
:100BC3001205409B7000120540017100120540128E
:100BD30071001205408B7100120540187200120556
:100BE300405A7200120540EA72001205401F73005A
:100BF300120540607300120540F974001205409815
:100C03007600120540D47600120540F577001205F0
:100C130040C47900120540CE7900120540D879000E
:100C2300120540E27900120540EC7900120540F606
:100C33007900120540007A001205404E7A00120531
:100C430040727A00120540967A00120540EF7A004E
:100C5300120540347B00120540527B00120540C947
:100C63007B00120540137C00120540497C001205ED
:100C730040DE7D001205406A1E00120540B61E00CC
:100C8300120540822000120540C020001205406278
:100C93002100120540962100120540BB21001205D8
:100CA30040182300120540182400120540EA2600CC
:100CB300120540DB2700120540852800120540A0DD
:100CC3002900120540D92C00120540652D0012059C
:100CD300409A2D00120540722E00120540482F0045
:100CE300120540EB2F0012054046300012054073F9
:100CF3003000120540953000120540DB320012052A
:100D0300408D3300120540E4330012054051340096
:100D13001205401235001205404735001205409B6D
:100D23003500120540D035001205401E360012056D
:100D3300407536001205400037001205408938001F
:100D4300120540463900120540753A00120540E489
:100D53003C001205408C3D00120540AF3F001205D8
:100D6300404C40001205409340001205405A420097
:100D73001205406E42001205407B4200120540A559
:100D83004200120540B14200120540CF4200120555
:100D930040994300120540C34300120540D043006D
:100DA300120540284400120540AE44001205409548
:100DB30045001205408746001205403747001205DB
:100DC30040D54700120540EC470012054025480076
:100DD300120540434800120540874800120540AE03
:100DE3004800120540AA4900120540254A00120591
:100DF30040484B001205405A4C001205404B4D0031
:100E0300120540B24D001205408C4E00120540C041
:100E13004E00120540364F001205405B4F0012058D
:100E230040814F00120540B74F00120540BB5100EF
:100E3300120540AD5200120540725300120540F2F4
:100E430054001205403B550012054067550012053A
:100E530040EE5500120540565600120540A85600B4
:100E6300120540EF56001205401B57001205405073
:100E73005700120540775700120540D55700120559
:100E830040B258001205401A590012054043590058
:100E9300120540B35900120540285A001205407A42
:100EA3005A001205409F5A00120540E55A001205E8
:100EB30040025B001205409F5B0012054095FF0254
:100EC300120540E0FF021205405DB701120540A87C
:100ED300B70112054003B80112054054B8011205C9
:100EE300406FB801120540A5B801120540C6B8010C
:100EF300120540D0B801120540E5B90112054003BF
:100F0300BA0112054073BA0112054086BA011205EF
:100F13004094BA0112054035BB0112054009BC01DA
:100F230012054024BD01120540A0BD01120540AACF
:100F3300BD011205401DBE0112054034BE0112055C
:100F43004076BE01120540B4BE01120540E3BE0166
:100F53001205401ABF0112054038BF011205405C5B
:100F6300BF011205409DBF0112054088C001120553
:100F730040CEC001120540F9C00112054066C1010F
:100F83001205408DC101120540D2C101120540E096
:100F9300C10112054039C20112054076C201120592
:100FA30040BDC201120540EEC20112054011C3014A
:100FB3001205401CC3011205403AC301120540F655
:100FC300C30112054000C4011205403FC4011205CC
:100FD3004055C4011205405EC401120540A2C4017C
:100FE300120540B6C401120540A1C501120540B463
:100FF300C501120540C9C50112054071C60112059C
:1010030040BDC60112054073C7011205407EC701EA
:10101300120540CCC801120540F8C8011205403939
:10102300C90112054053C9011205408AC9011205BD
:1010330040EDCB0112054075CC01120540F5CC0102
:1010430012054038CF0112054048CF011205404B2D
:10105300CF0112054057CF011205406BCF01120596
:10106300408ACF01120540BDCF0112054082D00155
:10107300120540E9D0011205404DD101120540D7B8
:10108300D10112054088D201120540AFD2011205E9
:10109300403FD3011205404BD3011205407AD301DF
:1010A3001205409CD301120540C3D3011205402809
:1010B300D401120540DBD501120540DED50112052E
:1010C3004048D6011205403BD70112054020D80104
:1010D300120540ABD801120540EED901120540B10B
:1010E300DA01120540EADA011205401BDB011205A1
:1010F3004024DB0112054008DC0112054098DC01A5
:1011030012054036DD01120540F6DD011205406F80
:10111300DE011205409EDE01120540DBDE011205F1
:1011230040AD9902120540BB9902120540319A0263
:10113300120540699A02120540B19A02120540B89D
:101143009C021205409A9E0212054059A102120503
:101153004085A102120540A5A10212054008A20282
:1011630012054046A20212054072A202120540ACCB
:10117300A20212054067F70212054097F702120513
:1011830040ECF702120540F7A20212054001A30248
:1011930012054045A302120540ECA3021205400FBD
:1011A300A402120540AFA40212054077A70212055C
:1011B3004085A702120540D8A702120540FEA702E8
:1011C30012054056A802120540C6A802120540198E
:1011D300A90212054082A90212054000AA021205C3
:1011E3004060AA021205409FAA02120540B1AA025A
:1011F300120540C3AA02120540E2AA021205408466
:10120300AB02120540A3A70112054000FD0212051F
:1012130040FBF3021205405AF40212054083F40224
:1012230012054079F5021205401CDF01120540FB4F
:10123300DF0112054037E001120540E0E10112052C
:101243004022E201120540CDE30112054011E40101
:10125300120540D9E40112054066E501120540CDAF
:10126300B0011205404DE6011205408DE60112055D
:101273004033E801120540D8E90112054026EC018C
:1012830012054034EC011205409CEC01120540D8D4
:10129300EF01120540EAFF021205400B820312051B
:1012A30040EBE602120540FEE6021205408BE70220
:1012B300120540C6E702120540E1E70212054006A7
:1012C300E8021205403AE8021205406BE8021205F3
:1012D300408AE9021205403EF202120540ABF202D7
:1012E300120540C7F20212054009F302120540320B
:1012F300F302120540CAF302120540E3F30212059A
:101303004037B402120540D3B40212054094B6022A
:10131300120540AAB702120540C3B802120540A144
:10132300B902120540E6BA02120540FEBA021205DE
:101333004008BC02120540858E02120540D08E0281
:10134300120540768F02120540FC8F021205404DB4
:101353009002120540619002120540489202120564
:1013630040C59202120540EF92021205407A9402A0
:10137300120540979402120540D894021205400DBD
:1013830095021205406695021205408195021205E9
:1013930040F69502120540889702120540B0970265
:1013A300120540D99702120540399802120540569A
:1013B30098021205405998021205405C98021205E2
:1013C30040C79802120540F6980212054009990297
:1013D3001205406F9902120540AA99021205402294
:1013E30081031205402E8103120540688103120513
:1013F3004037BC0212054086BC0212054028BE02DB
:10140300120540D4BF021205401CC002120540530E
:10141300C102120540E0C20212054002C3021205D6
:101423004054C302120540D6C30212054019F0010D
:1014330012054044F00112054031F10112054085C7
:10144300F101120540E1F1011205402DF2011205EF
:1014530040A0F20112054024F3011205409AF30162
:10146300120540DCF30112054006F801120540A7FE
:10147300F90112054087FB01120540B3FB01120578
:1014830040C6FC0112054059FE01120540008002CE
:10149300120540B880021205404181021205400244
:1014A3008202120540E682021205404383021205BE
:1014B3004051840212054002850212054052850202
:1014C300120540118702120540C187021205402808
:1014D3008802120540728A02120540CD8B02120562
:1014E30040678C021205402F8D021205408E830344
:1014F30012054097830312054075EE02120540DF83
:10150300EE0212054098EF02120540FEEF021205AB
:1015130040C4DE021205401DDF02120540ACE002AA
:10152300120540998003120540E38003120540B27F
:10153300F502120540C0F5021205409C8303120513
:10154300400080031205401080031205402E8003E3
:101553001205408F8003120540E27E001205400908
:101563007F001205408E7F00120540E77F001205C1
:1015730040DD9D03120540EBFE011205400DFF0106
:1015830012054077FF0112054082FF01120540C694
:10159300FF0112054085CE0212054093CE021205CB
:1015A30040D4CE02120540EECE021205403FCF02D8
:1015B30012054040D00212054065D0021205408258
:1015C300D0021205409FD002120540C4D00212057A
:1015D30040FDD0021205403BD102120540B2D102B8
:1015E3001205404ED20212054003D30212054011E8
:1015F300D3021205408BD30212054047D4021205D1
:1016030040D2D60212054075FA02120540AEFA0224
:10161300120540CBFA0212054029FB021205408E47
:10162300FB021205405EC902120540CBC902120536
:101633004085CA02120540F2CA0212054018CC02C4
:101643001205408BCD02120540EFCD021205403B3F
:10165300CE0212054044CE0212054053CE021205BB
:101663004066CE021205407CCE021205400AC40237
:101673001205405DC402120540D1C60212054003A3
:10168300C70212054025C7021205403EC7021205D4
:101693004057C70212054089C8021205401FC902FC
:1016A3001205406FF002120540A1F002120540AD91
:1016B300F002120540E0F00212054009F1021205A2
:1016C3004037F102120540B4F102120540E3F10282
:1016D300120540A1E902120540C7E90212054004C0
:1016E300EA0212054016EA0212054032EA02120526
:1016F30040A0EA02120540A9EA0212054008EB02E3
:101703001205402CEB02120540EBEB02120540F8E8
:10171300EB0212054009EC021205409F81031205FA
:1017230040EC8103120540B7DA02120540DFDB0209
:10173300120540ECDB021205400BDC0212054021CE
:10174300DC0212054035DC02120540AFDC02120553
:10175300402DDD02120540A6DD02120540EEDD023A
:10176300120540FEDD02120540FCFE021205402078
:10177300FF0212054048FF0212054070FF021205E6
:101783004037EC0212054050EC021205405CEC02BB
:1017930012054070EC021205408EEC0212054098CF
:1017A300EC02120540A2EC02120540B5EC02120550
:1017B30040E9EC0212054022ED0212054053ED020E
:1017C300120540A1ED02120540EEED02120540099B
:1017D300EE0212054013EE0212054024EE0212053A
:1017E300406AEE02120540568203120540E4AB0242
:1017F30012054010AC021205402CAC021205403F0A
:10180300AC0212054055AC02120540C5AC021205EC
:1018130040F8AC0212054052B00212054088B102F2
:10182300120540BBB10212054020B2021205400F5F
:10183300B30212054037B3021205404CB30212053E
:10184300405CB302120540A0B302120540F5B30297
:101853001205400BB402120540CDFB02120540E80D
:10186300FB0212054011FC021205402BFC0212057B
:101873004050FC021205406FFC0212054087FC0237
:10188300120540B5FC02120540CFFC021205409E32
:10189300820312054037D7021205403ED7021205D4
:1018A300404AD8021205407AD802120540A0D80255
:1018B300120540D3D802120540E5D8021205401F95
:1018C300D90212054085D902120540BED90212057C
:1018D300400ADA0212054037DA0212054057DA02EB
:1018E300120540F0F80212054008F902120540E81B
:1018F300F902120540FEFD0212054055FE021205D3
:101903004092FE02120540D3FE0212054033E40268
:101913001205404FE4021205409AE402120540B654
:10192300E402120540E7E4021205400EE502120547
:1019330040F1E502120540FBE50212054008E6020C
:10194300120540BFE602120540D3E602120540DC51
:10195300E6021205404DE1021205402EE402120593
:1019630040148303120540DE8203120540418303C2
:10197300120540698303120540D3A50112054022D5
:10198300A401120540B3A30112054057A301120598
:1019930040FAA201120540D0A201120540C8A001DD
:1019A30012054094A00112054052A00112054027E0
:1019B300A001120540699F011205401C9F011205F9
:1019C30040929D011205408F9D01120540959C0197
:1019D300120540619C011205409C9B01120540CFFA
:1019E300990112054082990112054053990112058C
:1019F3004050990112054044B001120540FEAF0169
:101A03001205404DAF0112054040AF011205401EC3
:101A1300AC011205404399011205400699011205D4
:101A230040F89801120540BBA901120540A4970193
:101A3300120540289701120540F5960112054099B9
:101A43009601120540F7E50112054054A80112055D
:101A5300406C960112054073930112054075920183
:101A6300120540FC9101120540C7910112054090F7
:101A73009101120540849101120540E49001120581
:101A830040209001120540E68D011205400B8B01A9
:101A9300120540CC8A011205406B890112054017DB
:101AA30089011205405E8801120540C487011205B1
:101AB300406387011205409D8701120540BEAB02BA
:101AC30000000080FBE473000136360101000102CF
:101AD30001000103010001040106060502000007DD
:101AE3000100340801000F090401010D0100FF0E7C
:101AF30008000017020000190100FF1A0100011B72
:101B03000100051C0100081D0200001F0100012047
:101B1300010001210200002301000F24020000261E
:101B230001000127010308280200FF2A0100072BF7
:101B33000102402C0100002D0100012E0100012FA4
:101B43000100FF30010B1C310800003A01000801BD
:101B530001710101010101110101013101010101C2
:101B6300018001100161013B0014006301730172E4
:101B730001620143010001130106013D0135000427
:101B830001120100010001000100010401040133FD
:101B93000133013C014401320136000001000165BB
:101BA300010001350081010001050182018301006B
:101BB300010302710230016002110270020102028C
:101BC3000202028002100261023A004100630273C2
:101BD3000272026202430200021302380000020092
:101BE30002040212020002000200020002040204C4
:101BF30002370037003C02440200023900000200B1
:101C0300026502000235028102000205028202839C
:101C13000200020300710030016000110070003106
:101C230002200350048000100061000000140063D0
:101C330000730072006200430000001300060000FE
:101C43000000000400120000000000000000000477
:101C5300000400370037003C02440000000000008D
:101C63000000006500000035008100000005000051
:101C73000083000000010371030103010301030159
:101C83000301032203020301031003000300030003
:101C930003000300030003000342030003240306BD
:101CA3000300030003040312032503230325032373
:101CB30003040304030003000300034403000300BD
:101CC3000323030003650321003503810300030598
:101CD3000300030003000336000100060000000FA9
:101CE3000000000000000000000000000003FFFFF0
:101CF30000000403FFFF0000FFFF0FF4010005C411
:101D0300040320000100000B00000000000000009D
:101D13000301030003000400080010001F003E003D
:101D23007B00F600EC01D703AF075D0FB91E713DD1
:101D330000000100AB140200451403004B1404001F
:101D430051140500571406006314FFFF0000650FCC
:101D5300950F6B0F710F8F0F830F7D0F9B0FA10FCC
:101D6300A70FB30F770F5F0F590FD5C5C5B5A5A53E
:101D73009585857575656555554545353525251510
:101D8300050AE30C02AD0C05BF0C07B30C0C9B0C4E
:101D93000DA70CFF00009C36063A703DD940434422
:101DA300AD47174B814EEA5100160F00000B150B80
:101DB300020002220F320000065677777777777793
:101DC30077777777777777777700010203040506CC
:101DD3000708090A0B0C0D0E0F49105B1061102F39
:101DE3000F6710290F350FC110DF10E510C710D38F
:101DF30010CD1000034948424D1817250502000174
:101E03001916181616152303003030171819213028
:101E13001B1D1F300C0E020B040B0A0708000F30AA
:101E23003016181920231A1C1E3000383C3E363B4E
:101E33003B352B432C890FAD0FD910B90FBF0FB50D
:101E4300106D1073107F1079100005150D0910081F
:101E53000400000000000000BE040A0E0004001588
:101E6300000405080F040CC082C083E99004BBF092
:101E7300E4900470F01218E39004CEE4F0A3F09021
:101E830004BCF0A3F0120E451218E9900440E4F0EC
:101E9300A3F09004DEE07002A3E060099004DE1278
:101EA3004413121AC8901E67E493FA790212194375
:101EB30002408C74F2120356EAFEEBFF74805FF962
:101EC300E47001E9706CEEA2E04003021F5290043B
:101ED30075E0640F700B7900120C83E96003122024
:101EE3007874016EFAEFFB02205D0CEC75F003A42D
:101EF300A9F02484F582E9341DF583E49364FF603B
:101F03002AE493FA8508828B83E06A70DDAA08ECE1
:101F130075F003A42485F582E9341DF583E493C0A9
:101F2300E0740193F583D082121AC8AA08AB091290
:101F330011B79004BBE0F91211C38A088B09EA7048
:101F430001EB60047C0080A3EEFA74806F809754E9
:101F5300207003022029750A007C027D007A20127A
:101F6300206D7C0079047A007B00120D198A088B9E
:101F73000980187401850882850983A3A3A3A3A3F9
:101F8300A3A3A3A3F0850C08850D09E5087002E55A
:101F930009606E7C007904AA08AB09120D198A0C3A
:101FA3008B0D750A01E50824041254C324FFF0A322
:101FB300E034FF1232D47002A3E070C98508828531
:101FC3000983A3A3A3A3A3A3A3A3A3A3E06401706F
:101FD300A2850882850983A3A3A3A3A3A3E0540432
:101FE30070917406850882850983A3A3A3A3A3A381
:101FF300A3A3A3F07AB785088285098312215780AA
:1020030084120CE97C0079017A007B00120D19EA35
:102013007001EB7009E50A70057A2012438E742073
:102023006EFAEF021EE974025FF9E47001E9600AD7
:10203300120E0FEEFA7402021F4F74045FF9E4707C
:1020430001E9601212453B12420D79011227D1EECC
:10205300FA74046F80CD7A007B0080031208497FF5
:1020630006020567EAFCEBFD7A017B009004BBE006
:10207300F91212B92290150A1247B6120C9522C012
:1020830082C08374EA1208DB851082851183AA82D9
:10209300AB83794B1219197408120A997402F074FC
:1020A30009120A99AA82AB8379501219197413126F
:1020B3000A99124997121937741602408974F41257
:1020C3000356EAFEEBFF7508018E828F83A3A3A359
:1020D300A3A3A3E05440600D8E828F83123880FA4D
:1020E300A3E0FB8003120D7974FE6A700374FF6B27
:1020F30060308E828F831244131243E0120DD3E9B2
:102103008E828F836006122145E480051221457477
:1021130001122F41FAA3E0FB12193DE9F5097005FD
:1021230080127509CDAA098E828F83122157E96027
:1021330003750800A908EEFAEFFB120CF5A90902D2
:102143002D95E0240DF8A3E012214F223400F988E5
:1021530082898322E0240C1247C6F9120C8F227461
:10216300F6120356E9FEEAFF7A0F7B001211B1EA79
:102173007001EB6019740C8A828B83F0EEA3A3F0D9
:10218300EF8A828B83A3F012447B7900800279105B
:102193000243EBC082C083900475E0640F7016EABB
:1021A3007001EB6010900470E064086005E0640463
:1021B300700312206702408C74F412035674FD12EC
:1021C30008DBEAFEEBFF8E828F83A3A3E0F9120DF7
:1021D3001F8A088B09EA7001EB70030223028E82C7
:1021E3008F83A3E064F160288E828F83A3E064CDA4
:1021F300601E8E828F83A3E0641A60148E828F83A5
:10220300A3E064E9600A8E828F83A3E064E1701E19
:102213007900120CF5E96016850882850983A3A36A
:10222300A3A3A3A3E04420F0A3E0F00222D18E8273
:102233008F83A3E0C0E07402120A99D0E0123F8BAF
:10224300124C36122C6B1251A7851082851183AA6A
:1022530082AB837005120C058003120DBB8E828F37
:1022630083A3E064F160678E828F83A3E064CD6013
:102273005D8E828F83A3E0641A60538E828F83A363
:10228300E064E160498E828F83A3E064F0603F7471
:1022930002120A99E064B7603585088285098312C2
:1022A300230E750A01780A12081F7403120A99E0B3
:1022B300F50A780A12081FEE240C1226B31236AF61
:1022C300A3A3A3A3A31236A7122CA7120849850818
:1022D30082850983A3A3A3A3A3A3A3A3A3E0640267
:1022E30070127406850882850983A3A3A3A3A3A3FD
:1022F300A3A3A3F08E828F83A3A3E0F9120CFB1296
:102303000CE990150E12207B022D90E0F8A3E0F962
:10231300E8FAE9FB2274F4120356EAFEEBFF7508B0
:10232300008E828F83A3A3A3A3A3E0604175080853
:102333008E828F83A3A3A3A3A3A3A3A3A312387003
:102343007001EB601075082C8E828F83A3A3A3A367
:10235300A3E0D2E0F08E828F83A3A3A3A3A3E054D0
:1023630003640160030223F14308110223F1EE2405
:10237300181251A46030EE241A1251A4700F124E99
:10238300767003A3E06970667508228061EE241BF2
:10239300122409241A124384EE2419F582EF12360B
:1023A300FB120C7180481223F67003750801124E5C
:1023B300767003A3E0697006E508D2E1F508E50845
:1023C3008E828F83A3A36011E07006E508D2E580B7
:1023D3001BE508D2E6F5088003E0601212387AF9AB
:1023E300120DC1E964016006E508C2E0F508A90819
:1023F300022D958E828F83A3A3A3A3A3A3A3A3A339
:1024030012467D640222F582EF122CBC12241322A1
:10241300124C56EE2274F012035674DB1208DBEAF8
:10242300FEEBFF8E828F83A3A3A3A3E0601090151E
:102433000CE07002A3E0600690150C12207B74067A
:10244300120A99AC82AD838E828F831226DD124CE1
:1024530048EE241B124EB27413120A9912420D74E1
:1024630006120A99AA82AB83120CA1E98510828510
:102473001183F0740C120A99E06022741D120A99F8
:10248300E0FD7407120A99E0FC8E828F831247B035
:102493007901120AB5E960030226AB80149004584F
:1024A300E0600E851082851183E0A2E140030226DD
:1024B300AB851082851183E0A2E6502E7423120AA5
:1024C300991238806403700E7423120A99124730EC
:1024D300A3E0640D60147406120A99AA82AB8312F6
:1024E3000DE5E9640170030226ABEE242C1226B33A
:1024F30012299A7003A3E069701F75080078081207
:10250300081F780812081FEE242EF582EF1236FBFF
:102513001226CE122CA71208497409120A99E0FA5E
:1025230090045EE06A60030226AB740C120A99E021
:1025330070030225F21226CE1247B2120E6F7401F7
:10254300120A991243E07401120A99E07002A3E09F
:1025530070030226AB7407120A99E0F88E828F8308
:10256300A3A3E028F8A3E03400F9740D28F582E46E
:1025730039F583E0FA7401120A991226C2E06A60FF
:102583001D7401120A991226BAEAF090874D780851
:10259300120A5A7401120A991226C8120A4B7904B4
:1025A3007407120A99124C3E2AFCA3E034008C8271
:1025B300F583A3AA82AB8312119F8A088B098C0A25
:1025C3008D0B7401120A991226C2A3780C120A5AAF
:1025D300780C7908120A0C50030226AB90873178E5
:1025E3000812092F7401120A991226C8120A4B9075
:1025F3000470E064046008E0640960030226AB85AC
:102603001082851183E0A2E55055EE242E1251A4C9
:10261300C0E07403120A99D0E0F0EE242F1251A403
:10262300C0E07404120A99D0E0F0EE24301251A4F1
:10263300C0E07405120A99D0E0F0EE24241226B308
:102643001206997407120A99AC82AD83740A120AAE
:1026530099AA82AB83120C0B74041208498049A215
:10266300E650457423120A991247BC7018741D1260
:102673000A99E0640270317406120A99AA82AB8344
:10268300120DAF80237423120A99124730E06407B6
:102693007016741D120A99E06404700C7406120A11
:1026A30099AA82AB83120DA97425024B28EE240B41
:1026B300F582EF122CBC22A3124731A3A3A322124B
:1026C3004667A3A322123A5C780822EE242A122C2E
:1026D300B91224132412122CB922A3A3A3A3E0F941
:1026E3008E828F83A3A32274F712035674F7120802
:1026F300DBEAFEEBFF900470E06403600DE064012D
:102703006008E0640960030227CC8E828F83A3E014
:1027130060030227A87C007D007A027B001218EF79
:10272300EE2402FAEF124484124EB890046112426E
:102733000D795312191F79001227D1900470E064A8
:1027430009600990046E1247B2120E6974011244B3
:102753000A7404900470F07401120A99AA82AB837C
:10276300794A1219197401120A99AC82AD837A66F7
:102773007B04121907900461124C527A037B0012F6
:1027830018EF900464124C527A047B001218EF90F5
:10279300045BE0A2E35004D2F08002C2F01243F0E3
:1027A30012207880218E828F83A3AE82AF83FC7D3B
:1027B300007A037B101218EF8E828F83E0F91227C1
:1027C300D1E4900470F0120CCB740902369F90048C
:1027D3006E1247B6120C1722C082C083900440E0E9
:1027E3007002A3E07041900470E01207220003011D
:1027F300FD27050C28061B282A28900448E07002B0
:10280300A3E0607B9004488070900444E07002A3CE
:10281300E0606C9004448061900446E07002A3E0A1
:10282300605D9004468052900440E07002A3E06033
:1028330005122C82702379009004BC800909EA12E6
:102843004B30EB1226B61235967001EB70EF900405
:10285300BC1247B2120C1180269004411226BBA36E
:10286300A3A3E064027005120E0380139004E4E056
:102873007002A3E060099004E4124413121AC80220
:10288300408C74F412035674FB1208DB8A088B091C
:102893001229837001EF700302297E74028E828FE6
:1028A300831249987950121919850882850983A3DF
:1028B300E0600302296C90046EE064FF7004A3E0FF
:1028C30064FF603590046EE064FE7004A3E064FF6F
:1028D300602785108285118312299A7003A3E0690A
:1028E300601774EA850882850983A3122CC17A6E66
:1028F3007B04795012191F80708510828511831211
:102903004F2912420D7A617B0479531219199004ED
:10291300611242047A647B04794B1219197A637B3E
:102923000479E1121919900475E0C3940F502290B1
:102933000463E0C0E07402120A99D0E0F074041258
:102943000A997401F07402120A99AA82AB831219CC
:1029530031750A00780A12081F780A12081F9015A9
:102963002DE0F9122C9E12084985088285098312ED
:102973002994F074039004701244727405022D922A
:102983007A0F7B001211B18A0A8B0BAE0AAF0BEEE2
:1029930022A31241BFA322124F2DE0682274F21228
:1029A300035674ED1208DBEAFEEBFF8E828F83A3DE
:1029B3001236CA851082851183AC82AD838E828FD5
:1029C30083A3A3A3A31226DD1247AB120CD7851052
:1029D30082851183E0706A8E828F83A3A3A3A3A34E
:1029E300A3A3A3E0C3940B4058850882850983A35E
:1029F300A3A3A3A3A3A3A3E064027045900470E080
:102A030064026042E06406603D900440E07002A30B
:102A1300E06005122C82605E900470E0640860053B
:102A2300E06404701C7402120A99E0F97407120A34
:102A330099AC82AD838508828509831247A9120C5C
:102A4300DD741302205F900440E07002A3E070265F
:102A5300750A00780A12081F780A12081F122C62DE
:102A63001226B6122C8BFCA3E0FD85088285098310
:102A7300122CA71208499004BC123A6F9004BCE0D0
:102A8300F50AA3E0F50B80378E828F83E0F8A3125B
:102A93002C8B687003A3E06970198E828F83A3A3C4
:102AA300E0FAE508240DF582E5091251A76A7003DF
:102AB300022B368E0A8F0BEE124B30EF123A6CEE6E
:102AC3007001EF70C37A187B0012121D8A0C8B0DF4
:102AD300AE0CAF0DEE7001EF7003022A449004BCFC
:102AE300E07002A3E070059004BC800AE50A124B73
:102AF30030E50B1226B6124DAC8E828F8312449DA5
:102B0300EE240C1226B374FFF0E48E828F83A3A30A
:102B1300A3A3A31234F7A3A3A3122CB0E4F0A3F04E
:102B2300E508240B1254C3122C581232D4C4122CAD
:102B330058A3F07401120A9912446CF07402120A39
:102B430099122C7AA3F0E508240DF582E5091226E3
:102B5300B6122995A3124567A3A31254DE12420DA0
:102B63007402120A99E0640160117407120A99ACA5
:102B730082AD83EE240D122C7180117C087D0079C7
:102B8300FFEE240DFAEF3400FB1211997412120AAE
:102B930099E0C0E0EE24151226B3D0E0F090152D95
:102BA300E0C0E0122C62124387D0E0C39A400302D4
:102BB3002A44122C6B1226B6A3E05480F9E4700168
:102BC300E97009900ECCE07003022A447406120ADD
:102BD30099122C7A700EE070627404120A99E070F4
:102BE30006022A44E060147405120A99E0C0E0EE7C
:102BF300240C124384D0E0C39A502B8508828509A4
:102C0300831254EC12420B122C621251A7C0E01231
:102C130026B0D0E0F07405120A99E0C0E0EE240C6F
:102C23001226B3D0E0F07406120A99E0600D740125
:102C33008E828F83A3A3A3A3A3A3F07404120A9980
:102C4300E07003022A4474018E828F83A3A3A3A39B
:102C5300A3F0022A44540F8E828F83A3A3A322E5F9
:102C6300082410F582E50922E508240B80F5FAEF24
:102C73003400FB12190722122C7E22E00234469004
:102C83000440122FE4640122E0F985088285098358
:102C9300A3A3A3A3A3A3A3A3A3E02290046E124C14
:102CA300569004641247B6120D8B740222A3F0EE01
:102CB3002416122CB922F582EF3400F58322F07A20
:102CC300617B047953122CCC2212191F7A647B0482
:102CD300794B12191F2274F212035674F81208DB8F
:102CE3008A0A8B0B8C0C8D0D8908851082851183C4
:102CF300AC82AD837583867582F77408120795F5E8
:102D030009AC0AAD0B851082851183AA82AB8312AD
:102D1300499270037509019004BC80158E828F83DC
:102D2300E0650C7004A3E0650D6023EE2416122603
:102D3300B3123A6FEE7001EF601FE50960DEAC0A73
:102D4300AD0BEE240DFAEF340012499160DD8E8253
:102D53008F83A3A3E0650870D2EEFAEFFB74080239
:102D6300205F74F71203569004BCE0FAA3E0800CD2
:102D7300EA2416123A69121223EEFAEFFBEA700103
:102D8300EB70ED9004BCE4F0A3F00236A2740312DE
:102D930008497F0402056774F21203568A0C8B0DEF
:102DA300ECFEEDFF890B8A828B83124B358A828B73
:102DB30083122E5DEEF8EFF9A30EAF838A828B8325
:102DC300A3A3E0C454F0FA88828983E04A122E68F0
:102DD3001241BF122E63E0333354FCFA8E828F8389
:102DE300E04A122E63A3E033333354F8FA8E828F12
:102DF30083E04AF008EFF9A30EAF83850C828B833F
:102E0300A3A3A3A3A3A3E0A2E0E492E0131354803B
:102E1300FA88828983E04AF0E50C2407F508EB126F
:102E23003F271208177C08123C9E120849124C15C2
:102E3300E50C240FF508E50D3400F50978081208B0
:102E4300177C03123C9E120849E50BC3940F4007FD
:102E5300122F2A1241B5F0022062A31241BFF022C1
:102E6300122E68A322F0850C828B83A3A3A3227462
:102E7300F2120356EAFEEBFF890B8C0C8D0D8E824A
:102E83008F83E08C828D831234FCAE82AF83E01299
:102E9300403C122F40C412403C122F33E054038CA9
:102EA300828D83122F3EA2E2E492E08C828D831204
:102EB3002F3D131313541F12403C122F3CA2E7E47F
:102EC30092E08C828D83A3A3A3A3122F338E088F4A
:102ED30009750A0078081208177C087D00E50C24A0
:102EE30007124BEB120849124C158E088F0978080C
:102EF3001208177C037D00E50C240F124BEB12081C
:102F030049E50BC3940F40148E828F83A3A3A3E0E0
:102F1300C0E0122F2A1226B6D0E08007122F2A1201
:102F230026B6E4F0022062E50C2412F582E50D22B8
:102F3300A3A31234FC0EAF8322A3A3A3A3A3F08EF7
:102F4300828F83E02274F412035674F91208DBEAC9
:102F5300FEEBFF900440E07002A3E06010122FDD4F
:102F630064027009EEFAEFFB120DFD806890046EA7
:102F7300E06E7003A3E06F705C74016960097A828C
:102F83007B04124992704E7A007B029004BBE0F9F5
:102F93001212C5EA7001EB703C9004717808120AB2
:102FA3005A8510828511837808120A4B900477E0C2
:102FB300C0E07404120A99D0E0F07405120A9974FF
:102FC30001F07406120A997402124998120BE1E98E
:102FD3006092120BE77407022D92900440122FE4C3
:102FE30022123A60A3A3E02274F6120356EAFEEB20
:102FF300FF8E828F83A3858208858309E0F9120CF3
:103003002F850882850983E064EB600A8E828F83B3
:10301300A3E064E17007E48E828F83A3F01220782B
:10302300750801780812081F8E828F83A3E0F508C4
:10303300780812081F7900122C9E120849120CE915
:103043000243EB74F61203569004CDE0701F7C002C
:1030530079017A007B00120D19EA7001EB600E8A88
:10306300828B83E07002A3E06003120C890243EBBE
:10307300C082C0831234E8401079FF120D13E9FABD
:10308300901E69E493C39A50047901800279000287
:10309300408C74F11203568A0A8B0B890E75090052
:1030A3008A828B83A3A3A3A3A3A3A3A3E0F9120DF3
:1030B3001F8A0C8B0DAE0CAF0D750801EE7001EF7E
:1030C300600302316B850A82850B83A3A3A3A3A3A9
:1030D300A3124C52850A82850B83A3A3A3A3A3A3A4
:1030E300A3A3E0F9850A82850B831247B2120D0769
:1030F3008A0C8B0DAE0CAF0DEE7001EF7003023234
:10310300AA8E828F83A3A3A3A3E4F0A3F0E50A24EA
:103113000BFAE50B124484E0C0E01226B0D0E0F0D5
:10312300120DD9EE240C1243D9750901EE2406F8C9
:10313300EF1254C6547FF0A3E054FC1232D454046B
:1031430060030231F1901512E0F50A750B00740764
:10315300780A1209B48E828F83A3A3A3A3A3A3E047
:10316300450AF0A3E0450BF08E828F83A3A3A3A3AC
:10317300A3A3E05480F50AA3E05403F50B74077886
:103183000A120A3CE50E607974028E828F83A3A330
:10319300A3A3122F3C240D1247C2A2E2500B9004AA
:1031A3005CE0F81226E012420BE50A700302327863
:1031B300EE2406F8EF3400F9E8FAE9FB8A828B8300
:1031C300E0547FFCA3E054FCFD74FF250AF50A7468
:1031D300FF3400F50B7407780A1209B4E50A4CF8BA
:1031E300E50B4DF98A828B8312420D0232788E826F
:1031F3008F83A3A3A3A3A3A3E04480F0A3E002319E
:103203006AE50A7005750800806B8E828F83A3A31D
:10321300A3A3A3A3E0542060171211AB8A0A747FFF
:10322300550AF8745F288E828F83A3A3A3A38027F4
:103233008E828F83A3A3A3A3A3A3E05410600E12D3
:1032430011AB8A0A740F550AF8740180D88E828FE5
:1032530083A3A3A3A37401F0A3E4F074048E828F69
:1032630083A3A3A3A3A3A3A3A3A31235037001EB77
:1032730070031232B474016509702F8E828F83A399
:10328300A3A3A3124A07F9EEFAEFFB120D0DE960AF
:1032930019EE240C1251A47002A3E060031232C190
:1032A300EEFAEFFB121223750800A9087F07020547
:1032B300677A207B009004BBE0F91211E122EE242F
:1032C3000C122CB91232CB22E0FAA3E0FB12122328
:1032D30022F088828983E02274F412035675080071
:1032E300120D1F8A0A8B0BAE0AAF0BEE7001EF7043
:1032F300030233808E828F83A3A3A3A3A3A3A3A3D9
:10330300A3E064067077120D318E828F83A3A3A38B
:10331300A3A3A3A3E05408F9E47001E9605C8E82DF
:103323008F831236BE7A007B00120D01EA7001EB27
:1033330070481233831219497C007D007A007B00A8
:1033430080228E828F831236B87004A3E064FF60FC
:1033530029123383121673E9641A601E7C007D0000
:10336300EEFAEFFB120D018A088B09AE08AF09EEE6
:103373007001EF70CD790012194F7508010223F126
:1033830090046E124A0D1247B62274F71203568A3E
:10339300828B83E5827002E58370099004CE8006F8
:1033A3008A828B83A3A31235967001EB602C8A82E9
:1033B3008B83A3A3A3A3A3A3A3E05408F9E47001FD
:1033C300E960DDEC7001ED60158A828B8312388031
:1033D3006C7003A3E06D70C880047A007B00023632
:1033E300A274F21203568A088B09890AECFEEDFFD8
:1033F3007A0E7B0012121DEA7001EB603EE48A82B2
:103403008B83A3A3A3A3A3A3A3A3123441E50A120B
:103413003F71A3A3124DA88A828B83A3A3A3A3E422
:10342300F0123441123F6F124C36EA240CF582EB52
:1034330012386A123F70A3A3F0A3F0022062125263
:10344300A680058E828F83A3A3A3A3A3A32274F5CF
:10345300120356EAFEEBFF890A8C088D09EE700110
:10346300EF60597401650A70147901120D13E9FABA
:10347300901E66E493C39A500F79118063740465B8
:103483000A70331234E840F18E828F83A3A3A3A37F
:10349300A3A3A3A3A3E50A1234F7124C348E828F9D
:1034A30083A3A3E4F0A3F09004CEE07002A3E09022
:1034B30004CE601B800A7402650A60CC79C1802047
:1034C300124A1A7002A3E088828983A3A370F1EEE3
:1034D300F0A3EF1235037001EB70031232B47900DD
:1034E3007F030205677904120D13E9FA901E65E460
:1034F30093C39A221234FCA322F08E828F83A322D9
:10350300F07A207B009004BBE0F91212C5EA22C0D6
:1035130082C083E9FC79009004CE801D8A828B836C
:10352300A3A3A3A3A3A3A3A3A3E06C600574FF6C4D
:103533007001098A828B83A3A31235967001EB7005
:10354300DB02408C74F71203568A828B83E5827008
:1035530002E58370099004CE80068A828B83A3A33D
:103563001235967001EB60248A828B83A3A3A3A3F5
:10357300A3A3A3A3A3E06970E1EC60148A828B8305
:10358300E0240D124B3FA2E240D080047A007B007E
:103593000236A21247B6EA22C082C0839004CE80CC
:1035A300068A828B83A3A31235967001EB60128A7D
:1035B300828B83A3A3A3A3A3A3A3A3E06970E28045
:1035C300047A007B0002408C124EBCE82274F11294
:1035D30003568A0A8B0B8C0C8D0D75080075090038
:1035E300EA7001EB602E9004CE80068E828F83A357
:1035F300A3123A6FEE7001EF601AAC0CAD0DEEFA48
:10360300EFFB850A82850B83121AC8E9640170DB1C
:103613008E088F09AA08AB090232AF74F71203565A
:103623009004CE124EB87C007D00800DE8FCE9FDCD
:1036330088828983A3A3124EB8E87001E96030EA57
:10364300687002EB6970E59004CE1247B2E86A70C5
:1036530002E96B88828983A3A37008124EB8900491
:10366300CE8009124EB88C828D83A3A312420D0221
:1036730036A274F7120356EAFEEBFFEE7001EF6019
:1036830016120D2B1236D47002A3E060031232C15E
:10369300EEFAEFFB1212230236A2741F1208497FBF
:1036A30001020567124C568A828B8322E0F98A82D3
:1036B3008B8302344C12388464FF22123884FCA3B7
:1036C300E0FD228E828F83A3A3E0F508A3E0F50932
:1036D300228E828F83E0241C1247C61232CC8E8244
:1036E3008F831232CBEE240C1236EF22F582EF34A5
:1036F30000F583E022F582EB1236F2F92274F2121E
:10370300035674FC1208DBEAFEEBFF7508FE75092D
:10371300FF120CEFE96005791102385FEE241512F0
:1037230051A46037901527E0C43354E0C0E0E03380
:103733003354FCFAD0E04AC0E0EE24151226B3D08D
:10374300E01234F71238707001EB600F7508FF1246
:103753004553EE24151251A4D2E0F08E828F8312CA
:1037630046776006EE2412123867EE24131251A432
:103773007003741EF01251A164017016900F9CE047
:10378300600D900458E0700A8E828F83E0700312FC
:103793003864EE24141251A4701590044DE0C0E077
:1037A300EE24141226B3D0E0F090044DE004F08E22
:1037B300828F83E064017016EE240B12387D64025D
:1037C300700CEE240F1251A44440F0A3E0F08510D6
:1037D30082851183AC82AD83EEFAEFFB120D498A29
:1037E3000A8B0B74FE6508700474FF64FF70031288
:1037F30036C6EA7001EB60608E828F83E0C0E074AE
:1038030001120A99D0E0F07402120A99124DAC74B5
:1038130001120A9985820C85830D780C12081BEE20
:10382300240F1226B312069DEE240E1251A4F50C9A
:10383300780C12081F7405120A99E0F9AC08AD0957
:10384300120D437405120849E9FE74106E700BAA39
:103853000AAB0B12122380027E10EEF974040220CD
:103863005FEE2411F582EF122CBCE4F0221247B66E
:1038730079FF1219FDEA22EE241D122CB9123884A5
:1038830022124726E022C082C08374DE1208DB8A3C
:10389300828B83A3A3A3A3124EB8740E120A99E8D2
:1038A300F0A3E912393B740C120A99123934240D2E
:1038B300F582EB1251A7C0E0741A120A99D0E0F016
:1038C300124A13124EB57420120A99123934241570
:1038D300F582EB1251A7C0E07408120A99D0E0F008
:1038E300EA241CF582EB124EB57412120A991242A5
:1038F3000D74FF851082851183F07401120A997487
:10390300FFF07402120A9974FFF090874D12069922
:103913007404120A99AC82AD837407120A99AA82BD
:10392300AB83120C0B740412084979007422024011
:1039330089E8F0A3E9F0EA22F08A828B83A3A31239
:103943004EBC2274F012035674EE1208DB7410128C
:103953000A991243E08C088D09890B7422120A9983
:10396300E0F50C7423120A99123A6F7425120A991E
:10397300E0F50EA3E0F50F750A107A1E7B00121214
:103983001D7402120A991243E07402120A99E0703C
:1039930002A3E07003023A4F851082851183AA8245
:1039A300AB837950124296120A99123A56A31243E4
:1039B300E07402120A99E0240B1221487402F012F7
:1039C3000A99123A567402F0120A99124413124CCD
:1039D300367402120A99E0241B122148E50BF07495
:1039E30002120A99E0240C122148E50CF07410121B
:1039F3000A9912429F120A99E0241C122148124389
:103A0300E07408120A99124DAC740A120A99E50C73
:103A1300F0850E82850F83C082C083740D120A99CC
:103A2300AC82AD83D083D0827403120795F97402FC
:103A3300120A99AA82AB83120CF5E9640170057529
:103A43000A0080087402120A991232C7A90A741272
:103A5300024B28123A5C02344C123A602212472A73
:103A630002344CEA240BF582EB122CBCE0FEA3E0FB
:103A7300FF2274F0120356EAFEEBFF8C088D0974E3
:103A8300088E828F83122CB0E0600874108E828FB0
:103A930083A3F0EE24171251A460098E828F83A3AF
:103AA300E02408F0EE24151251A460088E828F835F
:103AB300A3E004F08E828F83A3A3A3A3A3A3E06058
:103AC300198E828F83A3A3A3A3A3A3A3E0C3332449
:103AD30002FA8E828F83A3E02AF01251A16005754A
:103AE3000B0E8003750B008E828F83A3E0C0E0EE84
:103AF300240D1226B3D0E0FAE02A250B8C828D83A5
:103B0300F01251A1600512423A2AF0850882850914
:103B130083E0C394754003023C91E0FA7B001212E8
:103B23001D8A0E8B0FEA7001EB7003023C97EEFACD
:103B3300EFFB120D4FEA850E82850F831243E1EEF0
:103B43002402F8123CAA123CC9F0EE24040808121D
:103B53003CAAA3A3123CC9A3A3F0EE2413123CB5C1
:103B6300F0EE2414123CB5A3F0750C08EE241612E3
:103B730051A46013EE2418124C4FE50E2408FAE505
:103B83000F122C73750C10EE24171251A46019EE4A
:103B9300241A124C4F850C08E50E2508FAE50F127E
:103BA3002C737408250CF50C8E828F83A3A3A3A317
:103BB300A3A3E060728E828F83A3A3A3A3A3A3A373
:103BC300E0C0E0850C08E50E2508F582E50F122616
:103BD300B6D0E0123CBFE0C0E0850C08E50E250836
:103BE300F582E50F1226B6D0E0123CBFA3124BF4C8
:103BF3001208178E828F83A3A3A3A3A3A3A3E0C357
:103C030033FCE433FD850C08E50E2508FAE50F12B5
:103C13004BEE1208498E828F83A3A3A3A3A3A3A36E
:103C2300E0C333250CF50CEE24151251A46010C02B
:103C3300E0E50E250CF582E50F1226B6D0E0F01272
:103C430026B0124BF4120817EE240D1251A4FC7D7A
:103C530000850B088E828F83A3123F4AE50828FA5A
:103C6300E439123CA31208491251A16027EE240D36
:103C73001251A4FD8E828F83A3E0FCAA0EAB0F79B1
:103C830000120AB5E9600DAA0EAB0F121223750ECE
:103C930000750F00AA0EAB0F024B2B7D00EEFAEF5F
:103CA300FB12118D740322EF1254CA850E82850F05
:103CB3008322122CB9123CD0A3A3A322F0050C8EAD
:103CC300828F83025885123CDB123CD022E0850EA2
:103CD30082850F83A3A3A322A3A3F088828983A34E
:103CE3002274F6120356EA2415F582EB1251A760EB
:103CF300047C0180027C008A828B83E0FE90045E58
:103D0300123D85740278081209B4E5084EFEAF0926
:103D1300EA2412123D7F740678081209B4E5084EAE
:103D2300F8E5094FF9ECFDE8FCED49FDEA24111231
:103D33003D7F740978081209B4E5094DFDEA24169C
:103D4300123D7F740B78081209B4E5094DFDEA248E
:103D530017123D7F740C78081209B4E5094DFD8AEA
:103D6300828B83A3A3A3A3A3A3123D85740A78081C
:103D73001209B4ECFAE5094DFB0243EBF582EB12B1
:103D83002CBCE0F5087509002274F012035674FE8A
:103D93001208DB8A0E8B0FECFEEDFFE98E828F8318
:103DA300123F711241CC850E82850F83A3A3123F6C
:103DB300451241F6123F93123F451241E5123F93DC
:103DC300A3A3E0C0E0EE24111226B3D0E0123F9A81
:103DD300A3A3A3E0C0E0EE24121226B3D0E0124264
:103DE3004C600AE50E2408F8E50F1242138E828F09
:103DF30083A3A3A3A3A3A3A3A3E060218E828F83A2
:103E0300A385820C85830D123F4AEE24151226B337
:103E130012420D850C82850D83E02408F08E828F7B
:103E230083A3A3A3A3A3E0600F123F568E828F83C5
:103E3300A3A3A3A3A3123FA4EE24181251A4607C4E
:103E4300123F56C0E0EE24191226B3D0E0123FA46D
:103E5300F8E50E28F582E50F1251A7C0E0EE241A0B
:103E63001226B3D0E0123FA4123F1DE433FB123FEE
:103E7300757002A3E060458E828F83A3E0F8E50EA0
:103E830028F508E50F123F27120817EE24191251DF
:103E9300A4C333FCE433FD7403120A991247B2122C
:103EA3003CA4120849123F1D850C82850D83E02A2C
:103EB300124BFCEE241B1226B312420D8E828F830B
:103EC300A3E0FA8A08E50E2508F8E50F3400123F4F
:103ED30031122F41C39AC0E0EE24171226B3D0E06B
:103EE30012599EE06031EE2417F508EF3400F5090E
:103EF300850882F583E024F2F0EE241DF8EF1254D6
:103F0300C6240EFAA3E03400FB88828983EAF0A377
:103F1300EB124235C39AF0024B26EE24191236EF08
:103F2300C333FA223400F509750A00780822F9EE42
:103F3300241D123F3922F582EF3400F583E8F0A304
:103F4300E922E0FA023CAEE0F8E50E28F8E50F348A
:103F530000F9228E828F83A385820C85830DE0F87E
:103F6300E50E28F582E50F1236F222A3A3A3F00291
:103F730036AA12121D851082851183EAF0A3EB1273
:103F83003F8622123F8BE022F08510828511832227
:103F9300F0A3E9123F9A22F0850E82850F83023443
:103FA3004CF0850C82850D83E004F02274F4120337
:103FB300568A088B09EA124043F0EA1313543F125E
:103FC300403CA3A3A3F0EAC41313124043A3A3F0FA
:103FD300EB124029F08A0A8B0B7409780A120A3C07
:103FE300E50A124029A3F08A0A8B0B740A780A1295
:103FF3000A3CE50A5401C0E0EC2418F582ED1226D0
:10400300B6D0E0F08A0A8B0B740B780A120A3CE5EF
:104013000A124036F0740C7808120A3CE508124084
:1040230036A3F0022D9512402D2254018C828D83EC
:1040330002344B12402DA3A322540F8C828D832272
:1040430054038C828D83A3A322C082C08379008A08
:10405300828B83A3A3A3A3A3A3E0900458600FE0E0
:1040630070228A828B83A3A3E07019098016E06013
:10407300138A828B831247A9900461E06A7003A3B9
:10408300E06B70E78003120849D083D082020533C6
:1040930074F31203568A0A8B0B890CECFEEDFF8A2C
:1040A300828B831241CC850A82850B83A3A31241A1
:1040B300C31241F61242241241C31241E5124224B3
:1040C300A3A3E0C0E0EE24111226B3D0E012422BEA
:1040D300A3A3A3E0C0E0EE24121226B3D0E0124261
:1040E3004C600AE50A2408F8E50B1242138E828F0E
:1040F30083A3A3A3A3A3A3A3A3E0601B8E828F83A5
:10410300A31241D3EE24151226B312420D85088261
:10411300850983E02408F08E828F83A3A3A3A3A33E
:10412300E060238E828F83A3858208858309E0F86C
:10413300E50A28F582E50B1241B5A3A3F0850882B1
:10414300850983E004F0EEFAEFFB120D61E9705D7F
:104153008E828F83A3A3A3A3A31229947025E0FCCB
:104163008C08E50A2508FAE50B3400FBEE241D1242
:1041730043D9E50CC39CC0E0EE24171226B3D0E06C
:10418300F0802A1241D3740E28F8E439123F311219
:104193004235FCE50CC39C24F2C39AFDEE241712AE
:1041A30026B3EDF0AA0AAB0B7901120AB57F05021B
:1041B3000567122CBC1241BFA3A3A322E00254E75C
:1041C300E0FA850A82850B83221247B6120D5B2221
:1041D300858208858309E0F8E50A28F8E50B3400B1
:1041E300F922A3A3A3A3A3E0F9EAF8EE240B122C6C
:1041F300B9E822A3A3A3E0F9EA8E828F83A302582E
:1042030085124EBC8E828F83A3A3E8F0A3E9F0222C
:104213003400F9EE2413123F391234FCE02408F081
:1042230022F0A3E912422B22F0850A82850B830236
:10423300344CF012423A22900459E0F9120ABBE9D5
:10424300FA850882850983E022F074088E828F83C1
:10425300A31259A2A3E022C082C0837AD37B04793C
:10426300E21219197AD37B0402408CC082C0839076
:1042730004611247B202408CC082C08374FE1208EC
:10428300DB851082851183AA82AB83794B12429618
:104293000240891219198510828511831247B67459
:1042A3000222C082C083794A12191902408C74F623
:1042B3001203569004DBE0FE04F0EEF9120D1FEA40
:1042C3007001EB70EEEE60EBF90243EB74F0120356
:1042D30056EAFEEBFF8C0E8D0F89087410120A99B3
:1042E300E0F50D7411120A99E0F50C750900120E30
:1042F3006F8A0A8B0BA80AA90BE87001E97013E512
:104303000C705DA908AC0EAD0FEEFAEFFB120E8D2B
:10431300806CE508601FE82402F582E9124387E513
:10432300082AFAE4340013EA13F07009740188824E
:104333008983A3A3F0E50C6045E50D70108882899D
:1043430083E0600214F0E49004EAF080319004EA20
:10435300E004F0FA901513E06A70237509018003F5
:10436300E4601BE5096017120D79EA6E7002EB6FCA
:10437300700CEEFAEFFB7901120C2912438C024BFD
:104383002BF582EF1236F2FA227A017B009004BBFE
:10439300E0F91212BF22C082C08374016A7001EB7C
:1043A30070077A011232B6801490150A1243E0EABC
:1043B3007001EB6005122067800312438C02408C6E
:1043C300C082C08390150C1243E002408CC082C0AF
:1043D3008390150E80F1F582EF3400F583EAF0A3A4
:1043E300EBF022740D1208497F02020567A2F0E484
:1043F30092E01243FE795212191F22851082851111
:1044030083F0AA82AB83221243FE794212191F2240
:1044130012472222AA82AB83120CD17ABE7B047983
:104423004512191F2274F712035674ED1208DBE9C3
:10443300FE9004BA1247CD12445F7412120A99EE29
:104443001244548510828511831244177413023663
:104453009FF09014B8E0F97CBE7D04229014B8E07C
:10446300F97ABE7B04120CD722122C7EA3A322F06E
:1044730012447722EEFAEFFB9004BBE0F91211BD70
:10448300223400FB0236AAF582EF12458D22A3E007
:1044930088828983F0A308A98322A3A3A3A3A3A348
:1044A300A3A3A374FEF0A374FFF02274F4120356C3
:1044B3008A088B097A007B0412439012453B12420F
:1044C3000D7409900470F0120D6D8A0A8B0BAC0AFF
:1044D300AD0BE5082413F582E5091226B61247B29F
:1044E3001249926401704E1229837001EF60467481
:1044F300028E828F83F0E508241DF8E50912214F0F
:104503001247B28A828B83A3E0FC8A828B83A3A3A4
:10451300E0FBEC8E828F83A3A3F0A3EB1232D4F8DB
:104523001226BA1241BF124545FAA3E0FB794A129B
:10453300191F124477022D95900442124EBC901518
:104543000E22A3F0E5082415F582E5091236F222BE
:10455300EE240F1236EF4404F0A3E0F02212456D6F
:10456300A3A3A322124560A3A322F0850882850991
:1045730083A3A322EE241712458A120D6DEE241A8B
:10458300122CB9EA0243E1F582EF3400F58374019A
:10459300F02274F612035674F31208DBEAFEEBFF03
:1045A3007C0D7D007900851082851183AA82AB83FF
:1045B300121199EE241DF582EF124660E0F85420A3
:1045C3006008740C120A997401F0E854806008744E
:1045D3000B120A997401F0E85440600A740A120A33
:1045E300997401F0800A740A120A99E06401700553
:1045F300EE24138003EE2415124C4F7402120A9911
:10460300AA82AB831219071226B012471112420D68
:10461300740A120A99E06401703312466C703B12FB
:104623000D798A088B09A808A909EE240B1251A455
:10463300687003A3E0697022120D6DEAFCEBFD7450
:1046430002120A99AA82AB83124992600D851082E5
:10465300851183AA82AB83120C230243E6122CBC7E
:1046630012466722124726A3228E828F83A3A3A317
:10467300A3A3A3A3A3A312467D22E0FAA3E0FB1204
:104683000DD3E92274F612035674F31208DB8A0879
:104693008B09ECFEEDFF7C0D7D0079008510828592
:1046A3001183AA82AB83125715A3A3A3A3A3A3A326
:1046B300A3A3124711E8F0A3E9124717A3E0FAA254
:1046C300E55008740B120A997401F0EAA2E7500846
:1046D300740A120A997401F0EAA2E6EE5004241354
:1046E30080022415124C4F7402120A99AA82AB83DA
:1046F300121907850882850983A3A3E0C0E0740C1F
:10470300120A99D0E0124998120C1D0243E6124E88
:10471300BC023F8CF0EE241D122CB9124722221248
:1047230047262212472A22E0F812473022A3E0F557
:104733008388822274F712035674E11208DBEAFEBF
:10474300EBFF8E828F83122FE0A2E050568E828F72
:10475300831223108A828B83A3A3A3A3A3A3E0546E
:10476300FEF0A3E01247CD8A828B83E0241B12471D
:10477300C2F98A828B83E0241CFAA3E012448412D8
:1047830047B2120D67E9701B741D120A991247BCD8
:104793007011851082851183AC82AD83EEFAEFFB35
:1047A300120DB502369DA3A3A3A3A3A3A3A3A31290
:1047B30047B622E0FAA3E0FB2212388464042212F3
:1047C30047C622F8A3E01254CE22123F8BAC82AD2F
:1047D3008322E9FA790074046A600A740A6A60053C
:1047E30074036A70010902053374F61203567420C8
:1047F3008A828B83F07401A3A3F0120BD58A088BF2
:1048030009AE08AF09EE7001EF600774018E828F65
:1048130083F09004AEE07003124577EEFAEFFB02EB
:1048230043EBC082C08374019004D0F0E9A2E3504B
:10483300037403F0E9A2E15004E0D2E2F002408CF9
:1048430074F612035679007C008A088B09780812E3
:1048530005ADF8FF07764874487448744874486D8A
:1048630048714876486A480C80097C0480050C80AE
:10487300F67C089004D0E05C6003098003EC6001DF
:10488300090243EB74F61203568A828B83E0701499
:10489300A3E07002A3E0600C8A828B831247B112FB
:1048A3001A2D80047A007B000243EB74F512035641
:1048B30074F31208DBEAFEEBFF8C088D09750A120C
:1048C300EE7001EF70057900024983900461E06E98
:1048D3007003A3E06F7018120D6DEAFCEBFDAA08DC
:1048E300AB091249927005750A018003750A00E449
:1048F300851082851183F07401120A99EEF0A3EFFB
:10490300124998120B03E9602B7403120A99AA82C5
:10491300AB83120AEBE96401701A750A017403127E
:104923000A99AC82AD83AA08AB091249926021753A
:104933000A00801C7412650A70169004ADE06402CC
:10494300700EAC08AD09EEFAEFFB120B21E970DF34
:10495300AC08AD09EEFAEFFB120E75E9FA740A6AB8
:104963007005750A01801774A06A7012AC08AD094E
:10497300EEFAEFFB120E81EEFAEFFB120E99A90A83
:10498300740D1208490234E324FFFAE93413FB12CD
:104993001901E922E412499C221249A022F0851050
:1049A3008285118302440574F7120356EAFEEBFF76
:1049B3007508008E828F83A3A3A3A3A3A3A3A3E05D
:1049C3006017EE24151224091226B11247B2120DF4
:1049D300DFE9640170037508018E828F83A3A3A3AB
:1049E300A3A3A3A3E06018EE24131226B3124A076D
:1049F300FAA3E0FB120DDFE964017003750801A956
:104A0300080236A2124A0D022C93124C560254E7A6
:104A1300EA240BF582EB22124EBC88828983A3A37E
:104A2300E02274F012035674F31208DB7403120AC3
:104A330099ECF0A3EDF08A0E8B0F890B741D120A0B
:104A430099E0F50A7E01EE120A99740AF0E97007FB
:104A5300E50AC333240AF0851082851183AA82AB49
:104A630083120DC78A088B09EA7001EB7003024BAE
:104A730020123A667409124C1E450A124C2B120A74
:104A830099124C04E50B70307A008026EAC333F8A0
:104A9300E433F9741E120A99E028F8A3E039F9887F
:104AA300828983124B3588828983122E5DA30EAFD0
:104AB300830AEAC3950A40D4E5082417F582E50979
:104AC30012448D120D6DE508241AF582E50912438F
:104AD300DC7405120A99AC82AD83AA0EAB0F120ADD
:104AE300F1E96021E508124B30E50912448D7405A4
:104AF300120A99A882A983E5082418F582E5091208
:104B030026B612420D850882850983A3A3E50EF01C
:104B1300A3E50FF0AA08AB09120BCFE9FEEEF97477
:104B23000D800274021208497F080205672416F5F6
:104B330082221241BFF0A3AE82AF8322FEA3E034F0
:104B430000FF022F4274F012035674FE1208DB8535
:104B530010828511831243E089088C0E8D0F741225
:104B6300120A99E0F50B900F0CE07002A3E0607558
:104B7300E50BC333F8E433F9740E28FAE439FB1276
:104B830011B18A0C8B0DAE0CAF0DEE7001EF6055B9
:104B930074D48E828F83124BFC1242078E828F83D2
:104BA300A3A3A3A3E508F0AC0EAD0FEE2405122CCE
:104BB30071EE240D1226B3E50BF07413120A991249
:104BC3004BF4120817E50BC333FCE433FDEE240E5C
:104BD300FAEF124BEE120849EEFAEFFB900F0C12AC
:104BE3004413121AC8024B26FAE50D3400FB023CAB
:104BF300A4E0F508A3E0023F29123F86F8A3E0F9F9
:104C030022122413FAEFFB124C0E22121907124C34
:104C13001522EE2408FEEF3400FF228E828F83F0EC
:104C2300A3E50BC43354E022F0A3AE82AF83740335
:104C330022A3A3E508F0A3E509F022E0FA8E828F10
:104C430083A3A3E0221247B6120D5522122CB912E8
:104C53004C5622E00236C174F7120356E9FE7C007B
:104C63007D0078007900800C124D2A2CFCA3E03DD6
:104C7300FD1256501258A25037E8FAE9FBEA75F0D4
:104C830012A4FAAFF075F012EBA42FFBEA2487F518
:104C930082EB3412F583E064FF60D6124D2A700272
:104CA300A3E060CDEE60C1124D2FE4F0A3F080C10C
:104CB30078007900800C124D092CFCA3E03DFD1215
:104CC30056501258955038E8FAE9FBEA75F017A4E4
:104CD300FAAFF075F017EBA42FFBEA125890EB1222
:104CE30058637004A3E064FF60D5124D097002A3FA
:104CF300E060CCEE60C0124D0EE4F0A3F080C0EC97
:104D0300FAEDFB0236A2124D0EE022E8FAE9FBEAC5
:104D130075F017A4FA75F017EBA42FFBEA2412F52C
:104D230082EB3414F58322124D2FE022E8FAE9FBDB
:104D3300EA75F012A4FA75F012EBA42FFBEA2493A0
:104D4300F582EB3412F5832274F6120356EAFEEB76
:104D5300FF9004D1801388828983E06E7003A3E0FF
:104D63006F603F88828983A3A31235CB7001E970FA
:104D7300E57A047B0012121D8A088B09A808A90989
:104D8300E87001E9601C88828983124DAC9004D1DC
:104D93001247B288828983A3A31243E09004D112FD
:104DA300420D0243EBA3A3A3A3EEF0A3EFF02274FF
:104DB300F41203567E009004D180070E8882898303
:104DC300A3A31235CB7001E970F1EEC333FAE433D8
:104DD300FB124E667001EB7003024E607F0090047D
:104DE300D1802488828983124C52EFC333FAE4338F
:104DF300FBE5082AF582E5093BF583ECF0A3EDF02A
:104E03000F88828983A3A31235CB7001E970D490F4
:104E130004B6124E837003A3E06978087019120870
:104E23001BEEF50A780A12081F7C827D0479009034
:104E330004B6124E6F801A12081BEEF50A780A1296
:104E4300081F7C827D0479009004B61247B2120DCC
:104E5300EB7403120849AA08AB09121223120BE7D9
:104E6300022D9512121D8A088B09EA221247B612E7
:104E73000DF1228E828F83A3A3A3A3A3A3A3A3A332
:104E8300124EBC900461E06822C082C08380128A03
:104E9300828B83A3A3124EB89004D112420D121237
:104EA300239004D11235967001EB70E302408CF528
:104EB30082EF122CBC124EBC22E0024BFF74F6129E
:104EC300035690046E123A6F9004DC124F2912427B
:104ED3000D7ADC7B04795012191F9004DC12240F25
:104EE300FAEFFB120E939004DC123A6F900F0EE070
:104EF3007002A3E0602D7A067B001211B1EA700103
:104F0300EB602074D58A828B83F0E4A3A3F0740151
:104F13008A828B83123F6E124DA8900F0E12441398
:104F2300121AC80243EB124F2D22E0F8A3E0F990C6
:104F3300046E22C082C0839004DE7421F0A3740E39
:104F4300F09004E0741BF0A3740EF09004E2743943
:104F5300F0A3740EF002408CC082C083900461E021
:104F630064FE7004A3E064FF600E90045BE0A2E1C2
:104F73005006120E7B120E27120E2102408C74F67D
:104F83001203569004AFE060281211AB8A08A808F8
:104F93009004AFE0FA75F0E8A4CAACF075F003A48E
:104FA3002CFB747F582AFCE43BFD7A007B01122022
:104FB3006F0243EB74F012035674FE1208DB750F95
:104FC30000851082851183E4F0A3F0120B3F7A046D
:104FD3007900120B1BEAFE7A0279011251987A03C7
:104FE3007903125198120E57EAF50E2EFF8E0AEA34
:104FF300250AF8E43400F9E87001E970030250F877
:105003008F08750900740278081209B4AA08AB095D
:10501300123F757002A3E070030250F68F08750902
:1050230000740278081209B4AC08AD0979FF851041
:1050330082851183E0FA1211997508008056A90838
:10504300120B398A0C8B0DEA7001EB60458A828B57
:1050530083A3A3A3A3E0600464047036050F8A82CC
:105063008B83A3A3A3A3A3A3A3A3A3A3E0F9120ED8
:105073008785108285118312069DEFFD850C82853D
:105083000D83A3A3A3A3A3A3A3A3A3E01251AB12D2
:105093000849050885080A901E62E493F874019391
:1050A300F9C3E50A98E4995006E50FC39E408F754E
:1050B3000800E508C3950E503CAA087B00120E5D5C
:1050C3008A0C8B0DEA7001EB6025851082851183B4
:1050D30012069DEA240EF582EB1251A7FEEA240F75
:1050E3001236F8120E87EFFDEE1251AB1208490586
:1050F3000880BF7F0075096A900459E0600CF912BB
:105103000ABBE9FA745CC39AF50975F003E50984EF
:10511300F50A851082851183E0F50EA3E0F50F757E
:105123000B00E5096006750B20750900E50AC39FAE
:105133005004AE0A8008EFFEE50BD2E6F50BAC0E89
:10514300AD0FAA0BEEF9120E33E9F50CE50BA2E64F
:10515300401F1E750800800EE50E2404F50EE50FB2
:105163003400F50F0508E508C39E40ECEECFC39F5E
:10517300FFE97006E50BA2E650A585108285118331
:10518300E07002A3E060098510828511831232C7A3
:10519300A90C024B26120B1BEACEC39EFE22EE2461
:1051A30011F582EF1236F222FC850C82850D8312F3
:1051B30047B6120E2D74022274F2120356EAFEEB66
:1051C300FF8908740E120A991247B2750A00750B0B
:1051D30000750900800E8A0A8B0BEA2404FAEB346B
:1051E30000FB0509E509C39D50218A828B83E06496
:1051F300FF7004A3E064FF70158A828B83124DACA9
:10520300EC8A828B831252A1E508F0022062E50A40
:105213007002E50B600E850A82850B83C3E09EA3B3
:10522300E09F50B28A828B83124EB8C3EE98EF99F7
:1052330050A4EAF8EBF988828983E064FF7004A341
:10524300E064FF6010E82404F8E93400F90509E597
:1052530009C39D40E1880A890BE824FCF8E934FF7F
:10526300F988828983E0F50CA3E0F50D850A828530
:105273000B83E50CF0A3E50DF08882898312529528
:10528300123CDD125295A3F0C3EA98EB9940C60293
:1052930051FCA3A3E0850A82850B83A3A322A31257
:1052A30052A622A3F08A82022E6C74F31203567460
:1052B300FD1208DB89088A09ECFEEDFF750C017508
:1052C300F003E9A42402C0E07401120A99D0E012A9
:1052D30053667001EB607C124A131226B6125360B8
:1052E30088828983F0741F55084509A3F01254B0CE
:1052F300750900803D8E828F83E088828983F0A3C5
:10530300A882A9838E828F831244918E828F83A376
:10531300A3E05407C4C0E08E828F83A3A3A3E05409
:1053230007FCD0E04C124493EE2404FEEF3400FF5C
:105333000509E509C3950840BC8A828B83A3A3743E
:10534300FC1244A8EA2413F582EB12448D120BCF0E
:10535300E9F50CA90C74031208490241B0124EBCC2
:1053630074082212536BEA221249A0120DC7227449
:10537300F11203568A0A8B0B7508007AFE7BFF7CB9
:10538300FE7DFFE50A241DF582E50B124EB58882EA
:105393008983A3E0F509741F5509F50C1254B0E590
:1053A3000C600B88828983E0FEA3E0FBEEFA750DA7
:1053B30000803088828983E0FCA3E0FFECFEE824D0
:1053C300020808E91254C65407F50EA3A882A9835C
:1053D300EFFD900461E06E7003A3E06F7003850E30
:1053E30008050DE50DC3950C40C9E508700BA90927
:1053F300120E3FE970030254AD1254BA1254D48A08
:105403000C8B0DA80CA90DE87001E9600EE48882ED
:10541300898312587DE508F00254AD7CFF7DFF12AD
:1054230054BA1226B61247B2120E4B8A0C8B0DAE2B
:105433000CAF0DEE7001EF70331259917001EF60F4
:10544300697C177D0079001211991254BA1226B69D
:105453001254DE12420D90046E1254ECA312420B4E
:10546300EE240F1259A6EE240E12448AEE240E12D5
:1054730026B3E508F0EE240C123867EE2402FAEFA7
:105483003400FB120AEBE97021850A82850B83A3A2
:10549300A3A3A3A3A3A3A3E06010E50A2415F582A5
:1054A300E50B12240C2402122C710232AFE8240201
:1054B3000808E93400F922E50A240BF582E50B22FA
:1054C300F8E5091254CA221254CE223400F90232EA
:1054D300D5122CBC1247B6120B27221254E222E03B
:1054E300F8A3E0F98E828F83221254E2025886C019
:1054F30082C08374FE6A700374FF6B700479018049
:1055030034746059646060F5E9A2E5500F9004615A
:10551300124EB8C3EC98ED99401980E1A2E69004CD
:10552300615008C3E09AA3E09B80EDC3E09AA3E037
:105533009B50DA790002408C74F71203567E008088
:10554300041255560E901E68E493FAEEC39A40F186
:105553000236A2EE75F017A424FDFAE5F03413FB2E
:10556300120E632274F71203567800790080031237
:105573005650901E68E493FEC3E89EE9940050647D
:10558300E8FEE9FFEE75F017A4FE85F00875F01745
:10559300EFA4250812590FE06A7003A3E06B70CFE4
:1055A300E8FEE9FFEE75F017A4FE75F017EFA425EA
:1055B30008FFEE2407F582EF3414F583E06C7003E3
:1055C300A3E06D600A74FF6C700374FF6D70A0E854
:1055D30075F017A4F8AAF075F017E9A42AF9E812F0
:1055E30056E780047A007B000236A274F612035653
:1055F3007CFF7DFF7AFE7BFF120E4BEA7001EB709E
:105603004978007900803EE8FCE9FDEC75F017A4C9
:10561300FCAEF075F017EDA42EFDEC240CF582ED35
:105623003414F583E0701BE8FAE9FBEA75F017A47C
:10563300FAACF075F017EBA42CFBEA24FDFAEB347B
:1056430013FB12565012569B40BD0243EBE8240154
:105653000254B474F71203567A007B007800790081
:10566300802EE8FCE9FDEC75F017A4FCAEF075F0B4
:1056730017EDA42EFDEC125890ED1258637004A39D
:10568300E064FF6008EA24010AEB3400FB12565081
:1056930012569B40CD0236A2901E68E493FCC3E8E9
:1056A3009CE994002274F61203567E007D0080026A
:1056B3000E0D901E68E493FCEDC39C501CED125834
:1056C3005B7004A3E064FF60E88E08EA650870017C
:1056D300EB70DDED1256E380047A007B000243EBAE
:1056E30075F017A424FDFAE93413FB2274F71203AF
:1056F30056EAFEEBFFEE7001EF600E12570F1244F5
:10570300A68E828F83A312449D0236A27C177D004E
:1057130079001211990254E774F7120356EAFEEB6B
:10572300FF7508008018A808E875F017A4A9F012FF
:105733005A1A7003A3E06F6003125A200508901EE3
:1057430068E493FAE508C39A40DC0236A274F612C1
:105753000356120E4B8A088B09A808A909E87001A1
:10576300E9600AE8240DFAE93400FB80047A007B3F
:10577300000243EB74F4120356EAFEEBFF8C0A8D2E
:105783000B7508007509008036E50975F017A42428
:10579300FFFAE5F03413FB120AEBE96020A80912C3
:1057A3005A5E7003A3E06F700375080AAC0AAD0B71
:1057B300E875F017A412498B60034308A00509900C
:1057C3001E68E493FAE509C39A5004E50860BA0237
:1057D30023F174F61203567E008024EEF9120B397E
:1057E300EAF8EBF9EA7001EB6014E8240712586B4E
:1057F300500CE488828983A3A3A312587DF00E8EF4
:1058030008901E62E493F8740193F9C3E50898E4E1
:105813009940C87E00803212585A7004A3E064FF96
:105823006026EE75F017A424FDF8E93413F9E82493
:105833000C12586B5012E8240FF582E912386AE80B
:10584300240EF582E912386A0E901E68E493FAEE8C
:10585300C39A40C30243EBEE12588AE912586322FB
:105863003413F583E064FE22F582E91236F2FA740A
:10587300012AF09004B0E0C39A22A3A3A3A3A31226
:105883003CDBA3A302344A75F017A4A9F024FDF569
:105893008222901E68E493FAC3E89AE99400229066
:1058A3001E62E493FA740193FBC3E89AE99B2274A2
:1058B300F41203568A088B098C0A8D0B7E007F0035
:1058C3008008EE24010EEF3400FF901E68E493F885
:1058D300C3EE98EF94005031AC0AAD0BEEF8EFF93C
:1058E300E875F017A4F8AAF075F017E9A42AF9E807
:1058F30012498B60CDEE75F017A4FEAAF075F01770
:10590300EFA42A12590F124C36022D95FFEE1258AE
:1059130090EF3413F58322E9FA7907C3940D400419
:1059230079018019EAC3940740047903800FEAC31D
:105933009403400419198005EA70027900020533C3
:1059430074F01203568A0E8B0F8C0A8D0B89081282
:1059530059917001EF603412570FE50EF0A3E50F74
:1059630012599EA3A3A3A3E50AF0A3E50BF0E50850
:10597300600AEE240F1226B3E5088008EE240F1206
:1059830026B37401F0EE240E1259A6024B2B120E0D
:10599300518A0C8B0DAE0CAF0DEE221259A222F0E0
:1059A30002344612458AEE240D122CB97402F022F9
:1059B30074F51203568A088B09ECFEEDFF750A0095
:1059C3008014E875F017A4125A1A7003A3E06F60ED
:1059D30003125A20050A901E68E493FAE50AC39A53
:1059E3005024A80AE875F017A4A9F0125A0CE06530
:1059F300087004A3E0650970C9E875F017A4125A8A
:105A03000C124DAC80CE0234E3125A10222407F557
:105A130082E93414F58322125A10E06E22E81256FA
:105A2300E3120E632274F7120356EAFEEBFF7508C6
:105A3300008019A808125A5E7003A3E06F700BE888
:105A4300125A6A7005E5081255570508901E68E456
:105A530093FAE508C39A40DB0236A2E812588AE9B2
:105A63003413F583E06E2275F017A424FFFAE934AA
:105A730013FB120AEBE922C082C0839004E474A5ED
:105A8300F0A3740EF09004E674ABF0A3740EF090E0
:105A930004E874B1F0A3740EF002408C74F41203A2
:105AA30056EAFEEBFF122FDD70358E828F83A3A3A0
:105AB300A3A3A3A3A3A3A312069D9004401244137C
:105AC3007808120A5AAA08AB09AC0AAD0B8E828F6A
:105AD30083A3E0F9120C357402120849120BE70292
:105AE3002D95C082C0839004B8125B96F09004B8E1
:105AF300E07002A3E070057901120DF702408C7487
:105B0300F612035674FC1208DBEA2408F8EB1221A0
:105B13004F125B961232D47002A3E09004B8700B5C
